:100000000C9427010C944F010C944F010C944F0158
:100010000C944F010C944F010C944F010C944F0120
:100020000C944F010C944F010C94EB0D0C94B70CF5
:100030000C944F010C944F010C944F010C944F0100
:100040000C944F010C944F010C944F010C944F01F0
:100050000C944F010C944F010C944F010C9492148A
:100060000C944F010C94CC160C94FE160C944F017A
:100070000C944F010C944F010C944F010C944F01C0
:100080000C944F010C944F010C944F010C944F01B0
:100090000C944F010C944F010C944F010C944F01A0
:1000A0000C944F010C944F010C944F01080B00026B
:1000B0000202010009040000010202000005240000
:1000C0001001052401010104240206052406000193
:1000D0000705810310004009040100020A00000026
:1000E000070502024000000705830240000000C12E
:1000F0008081C112010002020000404123418000C2
:1001000001010200011201000200000040412341F0
:100110008000010102000141726475696E6F204C1C
:100120004C430055534220494F20426F6172640096
:100130000403090472756E2D6272696467650A00B2
:100140000A000A0000000000000000002A2B28001E
:10015000000000000000000000000000000000009F
:10016000000000002C9EB4A0A1A2A434A6A7A5AEB6
:10017000362D3738271E1F20212223242526B3336E
:10018000B62EB7B89F8485868788898A8B8C8D8E9A
:100190008F909192939495969798999A9B9C9D2F66
:1001A0003130A3AD350405060708090A0B0C0D0E06
:1001B0000F101112131415161718191A1B1C1DAF46
:1001C000B1B0B500090402000103000000092101DB
:1001D00001000122650007058403400001050109B3
:1001E00002A1010901A100850105091901290315D1
:1001F00000250195037501810295017505810305AF
:10020000010930093109381581257F750895038169
:1002100006C0C005010906A1018502050719E029EC
:10022000E715002501750195088102950175088182
:1002300003950675081500256505071900296581D0
:1002400000C0C605D8076112BF162E17E905112494
:100250001FBECFEFDAE0DEBFCDBF12E0A0E0B1E01D
:10026000E0E1F9E302C005900D92A83CB107D9F78F
:1002700024E0A8ECB2E001C01D92A833B207E1F778
:1002800012E0CCE4D2E004C02297FE010E94771C69
:10029000C234D107C9F70E94470F0C9467190C9418
:1002A000000040E855E260E070E08DE193E00E94DC
:1002B000C30726E040E950ED63E070E080917F03E2
:1002C000909180030E94D80886E793E00E945A111B
:1002D0008DE193E00E94C9078823D1F308955F92CE
:1002E0006F927F928F929F92AF92BF92CF92DF9246
:1002F000EF92FF920F931F93CF93DF93CDB7DEB7AB
:10030000C059D1090FB6F894DEBF0FBECDBF6DE264
:1003100071E08DE193E00E949D0940E150E060E0D2
:1003200070E08DE193E00E94790A1F9284E08F9340
:1003300081E491E09F938F93CE0101967C01FF921F
:100340008F930E947A191F921F92FF92EF926E0173
:1003500091E8C90ED11CDF92CF920E947A19B601A2
:100360008DE193E00E949D096AE471E08DE193E0E4
:100370000E949D090FB6F894DEBF0FBECDBF00E00E
:1003800010E084E0582E91E4892E91E0992E23E428
:10039000622E21E0722EC8018F709927892B09F0F7
:1003A0004DC00115110509F449C06AE471E08DE101
:1003B00093E00E949D095801F0E1AF1AB108A01620
:1003C000B106B8F4C5010E946E1B90EE980F9F35E0
:1003D00038F067E271E08DE193E00E949D0905C06D
:1003E000682F8DE193E00E949F098FEFA81AB80A49
:1003F000E6CF8DE193E00E94A6091F925F929F9243
:100400008F92FF92EF920E947A191F930F93FF929F
:10041000EF92DF92CF920E947A19B6018DE193E0BC
:100420000E949D096AE471E08DE193E00E949D09BC
:100430000FB6F894DEBF0FBECDBF0EC0C8018770E7
:100440009927892B49F40115110531F06DE471E00C
:100450008DE193E00E949D09C8010E946E1BB82E99
:100460001F925F927F926F92FF92EF920E947A1991
:100470002B2D332727FD30953F93BF92FF92EF92AC
:10048000DF92CF920E947A19F60162818DE193E0AA
:100490000E949F09F60163818DE193E00E949F090C
:1004A0006EE471E08DE193E00E949D090F5F1F4FA4
:1004B0000FB6F894DEBF0FBECDBF013094E0190730
:1004C00009F069CF00E010E07801FFEFEF1AFBEFD1
:1004D000FF0A0F301105A1F06CE471E08DE193E0AB
:1004E0000E949D09E7E0EE22FF24EF2831F46DE43D
:1004F00071E08DE193E00E949D090F5F1F4FE4CFF3
:100500006AE471E08DE193E00E949D098FEF93E032
:100510000E946E1B90EE980F9F3538F067E271E0F5
:100520008DE193E00E949D0905C0682F8DE193E065
:100530000E949F098DE193E00E94A609C057DF4FFA
:100540000FB6F894DEBF0FBECDBFDF91CF911F91E4
:100550000F91FF90EF90DF90CF90BF90AF909F9062
:100560008F907F906F905F9008952F923F924F925F
:100570005F926F927F928F929F92AF92BF92CF9233
:10058000DF92EF92FF920F931F93CF93DF93CDB73C
:10059000DEB7C059D1090FB6F894DEBF0FBECDBF8C
:1005A0005C014B016115710521F44EEF842E4FE77C
:1005B000942E60E571E08DE193E00E949D09350184
:1005C00040E150E0B5018DE193E00E94790A1F926D
:1005D00084E08F9381E491E09F938F938E010F5F6E
:1005E0001F4F1F930F930E947A19BF92AF921F93D0
:1005F0000F937E0181E8E80EF11CFF92EF920E94BA
:100600007A19B7018DE193E00E949D096AE471E0D7
:100610008DE193E00E949D090FB6F894DEBF0FBEF6
:10062000CDBFC12CD12C861497040CF49CC01501AD
:10063000260C371CC6018F709927892B09F04DC0F5
:10064000C114D10409F449C06AE471E08DE193E07A
:100650000E949D0931E1432E512CB1E04B1A510803
:10066000A1F0F101E419F509649180EE860F8F3550
:1006700038F067E271E08DE193E00E949D09EDCFD3
:100680008DE193E00E949F09E8CF8DE193E00E9405
:10069000A6091F92E4E0EF93A1E4B1E0BF93AF930A
:1006A0001F930F930E947A197F926F921F930F935B
:1006B000FF92EF920E947A19B7018DE193E00E94B8
:1006C0009D096AE471E08DE193E00E949D090FB6F7
:1006D000F894DEBF0FBECDBF0EC0C601877099274C
:1006E000892B49F4C114D10431F06DE471E08DE13E
:1006F00093E00E949D09F10124901F92F4E0FF9382
:10070000A3E4B1E0BF93AF931F930F930E947A19B4
:10071000822D992787FD90959F932F921F930F937A
:10072000FF92EF920E947A19D70112966C918DE197
:1007300093E00E949F09F70163818DE193E00E949D
:100740009F096EE471E08DE193E00E949D09FFEF47
:100750006F1A7F0A8FEFC81AD80A0FB6F894DEBF57
:100760000FBECDBF60CFE12CF12C87010C0D1D1DFC
:10077000C8018F709927892BA1F06CE471E08DE19D
:1007800093E00E949D0907701127012B31F46DE45D
:1007900071E08DE193E00E949D09BFEFEB1AFB0A27
:1007A000E4CF6AE471E08DE193E00E949D09840149
:1007B000005111090E0D1F1D08151905B4F4F5019E
:1007C000E00FF11F649180EE860F8F3538F067E2FD
:1007D00071E08DE193E00E949D0904C08DE193E0FA
:1007E0000E949F090F5F1F4FE7CF8DE193E00E94AA
:1007F000A609C057DF4F0FB6F894DEBF0FBECDBFBE
:10080000DF91CF911F910F91FF90EF90DF90CF90EC
:10081000BF90AF909F908F907F906F905F904F9020
:100820003F902F900895CF92DF92EF92FF920F9317
:100830001F93CF93DF938C017B016115710521F428
:10084000EE24EA945AE0F52E63E671E08DE193E040
:100850000E949D096DB77EB740E150E08DE193E0C5
:100860000E94A50A62E771E08DE193E00E949D0974
:10087000E80140E150E0B8018DE193E00E94790A7F
:1008800040E150E0B8018DE193E00E94710A6AE412
:1008900071E08DE193E00E949D0900E010E0EC160C
:1008A000FD060CF45DC0C8018F709927892B89F56E
:1008B0000115110571F16AE471E08DE193E00E9488
:1008C0009D096E0180E1C81AD108CC16DD0699F0A9
:1008D000F60161916F0180EE860F8F3538F067E287
:1008E00071E08DE193E00E949D09EFCF8DE193E0EF
:1008F0000E949F09EACF8DE193E00E94A60940E1A2
:1009000050E0BE018DE193E00E94710A6AE471E05B
:100910000AC0C80187709927892B49F40115110570
:1009200031F06DE471E08DE193E00E949D098881D2
:10093000803130F46DE771E08DE193E00E949D0914
:1009400040E150E069918DE193E00E949E0A6EE4DF
:1009500071E08DE193E00E949D090F5F1F4F9FCFD3
:10096000C12CD12CE601C00FD11FCE018F70992769
:10097000892BA1F06CE471E08DE193E00E949D0968
:10098000C770DD27CD2B31F46DE471E08DE193E08C
:100990000E949D09FFEFCF1ADF0AE4CF6AE471E0FD
:1009A0008DE193E00E949D09E7016097CC0DDD1D6C
:1009B000CE15DF058CF4699180EE860F8F3538F007
:1009C00067E271E08DE193E00E949D09F1CF8DE136
:1009D00093E00E949F09ECCF8DE193E0DF91CF91EE
:1009E0001F910F91FF90EF90DF90CF900C94A6098C
:1009F000EF92FF920F931F93CF93DF93EC016FE77A
:100A000071E08DE193E00E94AA0966E871E08DE152
:100A100093E00E949D0940E150E0BE018DE193E02A
:100A20000E94710A6AE471E08DE193E00E949D09E1
:100A300000E010E0C115FBE0DF070CF063C0C80167
:100A40008F709927892BB9F501151105A1F16AE479
:100A500071E08DE193E00E949D097E0180E1E81A3A
:100A6000F108EC16FD0699F0F70161917F0180EE27
:100A7000860F8F3538F067E271E08DE193E00E94D8
:100A80009D09EFCF8DE193E00E949F09EACF8DE1B0
:100A900093E00E94A60966E871E08DE193E00E9470
:100AA0009D0940E150E0BE018DE193E00E94710A92
:100AB0006AE471E00AC0C80187709927892B49F45C
:100AC0000115110531F06DE471E08DE193E00E94B4
:100AD0009D098881803130F46DE771E08DE193E00C
:100AE0000E949D0940E150E069918DE193E00E94F0
:100AF0009E0A6EE471E08DE193E00E949D090F5F14
:100B00001F4F98CFC0E0D0E07E01E00EF11EC7017C
:100B10008F709927892B99F06CE471E08DE193E057
:100B20000E949D0987E0E822FF24EF2831F46DE45C
:100B300071E08DE193E00E949D092196E5CF6AE482
:100B400071E08DE193E00E949D09C151D54FCF3FE7
:100B5000EAE0DE078CF4699180EE860F8F3538F07D
:100B600067E271E08DE193E00E949D09F0CF8DE195
:100B700093E00E949F09EBCF8DE193E0DF91CF914D
:100B80001F910F91FF90EF900C94A6091092CB0249
:100B90001092CA0288EE93E0A0E0B0E08093CC020D
:100BA0009093CD02A093CE02B093CF028EEA92E052
:100BB0009093C9028093C80286E793E09093D50290
:100BC0008093D4021092DA021092DB021092DC02BF
:100BD000089588EC92E00C9411140F931F93CF9317
:100BE000DF93CDB7DEB764970FB6F894DEBF0FBEC4
:100BF000CDBF8DB79EB70E94F8048DE193E00E94AF
:100C00003007892BD1F300E010E08DE193E00E94E2
:100C10003007892B71F08DE193E00E944007E1E0FD
:100C2000F0E0EC0FFD1FE00FF11F80830F5F1F4FFF
:100C3000ECCF8DB79EB70E94F80480E090E06496F8
:100C40000FB6F894DEBF0FBECDBFDF91CF911F91DD
:100C50000F91089588EC92E00E9494138111FACFCD
:100C60008DE193E00E94A60988EC92E00E94E912CF
:100C70001816190654F488EC92E00E94F312682FBB
:100C80008DE193E00E949F09EFCF8DE193E00C94FA
:100C90002D07CF93DF9300D000D000D0CDB7DEB7C3
:100CA00069E871E0CE0101960E94CD0EBE016F5F32
:100CB0007F4F88EC92E00E947C14CE0101960E9446
:100CC0005F0E0E942A0626960FB6F894DEBF0FBE6E
:100CD000CDBFDF91CF910895CF93DF9362E971E0AB
:100CE0008DE193E00E94AA0964EA71E08DE193E04E
:100CF0000E94AA0961EB71E08DE193E00E94AA09CC
:100D00006FEB71E08DE193E00E94AA096EEC71E057
:100D10008DE193E00E94AA0969EE71E08DE193E014
:100D20000E94AA096BEF71E08DE193E00E94AA098D
:100D30008DE193E00E943007892BD1F38DE193E0A0
:100D40000E944007C82F8DE193E00E944007C13305
:100D500041F460E070E080E090E0DF91CF910C948E
:100D60001304C23341F460E070E080E090E0DF9172
:100D7000CF910C94B502C33321F4DF91CF910C9441
:100D80006F01C53391F46FE072E08DE193E00E9452
:100D9000AA0928E088E190E00FB6F894A89580931E
:100DA00060000FBE20936000FFCFC433E1F464E223
:100DB00072E08DE193E00E949D090E94ED05EC0137
:100DC00063E472E08DE193E00E949D09D7FD03C0CA
:100DD00068E572E002C06BE572E08DE193E0DF91BF
:100DE000CF910C94AA09C63321F4DF91CF910C94D2
:100DF00049066EE572E08DE193E00E949D096C2F3B
:100E00008DE193E0DF91CF910C94BC09CF93DF93F8
:100E10001F92CDB7DEB76983DC01ED91FC910280B2
:100E2000F381E02D41E050E0BE016F5F7F4F0995F7
:100E30000F90DF91CF910895CF93DF93EC018C85D4
:100E40009D8597FF05C082E00E948C0B9D878C8753
:100E50008C859D85DF91CF91089583E00C94E10D01
:100E6000FC018485958597FD06C082E00E94340BC5
:100E700090E00196089582E00E94340B90E008957E
:100E8000FC018485958597FD05C02FEF3FEF3587E1
:100E90002487089582E00C948C0BCF93DF93EC01B0
:100EA00080910D01882331F083E00E94BD0B18165C
:100EB000190634F081E090E09B838A8380E090E023
:100EC000DF91CF910895FC0120812E5F208342E4C1
:100ED00050E06CEA70E080E80C94580CFC018181D1
:100EE0009081913A59F4813209F03CC047E050E0DA
:100EF00066E071E080E00E94580C43C0913291F5A9
:100F0000803239F467E070E086E091E00E94890C5D
:100F100006C0823209F035C0828180930D01809134
:100F2000060190910701A0910801B0910901803B51
:100F30009440A105B105C1F480910D0180FD14C05C
:100F400087E797E790930108809300082BE088E1FA
:100F500090E00FB6F894A895809360000FBE2093A0
:100F600060000FC080E0089588E10FB6F894809388
:100F70006000109260000FBEA895109201081092B8
:100F8000000881E008952FEF3FEFFC0135872487AB
:100F90000895CF93C0910D016AE070E080E090E089
:100FA0000E940B1581E0C11101C080E0CF9108952E
:100FB0001092200310921F0388EE93E0A0E0B0E0AF
:100FC0008093210390932203A0932303B0932403DF
:100FD00081E792E090931E0380931D038FEF9FEFB4
:100FE00090932A03809329030895FC01818D228D1B
:100FF00090E0805C9F4F821B91098F739927089521
:10100000FC01918D828D981731F0828DE80FF11DD2
:10101000858D90E008958FEF9FEF0895FC01918DED
:10102000828D981761F0828DDF01A80FB11D5D964A
:101030008C91928D9F5F9F73928F90E008958FEFB8
:101040009FEF089584E297E1892B49F080E090E0DA
:10105000892B29F00E94241781110C940000089517
:10106000FC01848DDF01A80FB11DA35ABF4F2C9145
:10107000848D90E001968F739927848FA689B78914
:101080002C93A089B1898C9180648C93938D848DED
:10109000981306C00288F389E02D80818F7D8083BC
:1010A0000895CF93DF93EC01888D8823C9F0EA89F6
:1010B000FB89808185FD05C0A889B9898C9186FD51
:1010C0000FC00FB607FCF5CF808185FFF2CFA8894E
:1010D000B9898C9185FFEDCFCE010E943008E7CF12
:1010E000DF91CF910895CF92DF92FF920F931F93DC
:1010F000CF93DF931F92CDB7DEB76C0181E0D601AD
:1011000058968C9358975B969C915B975C968C91C4
:101110005C97981307C05096ED91FC915197808190
:1011200085FD2EC0F601038D10E00F5F1F4F0F737A
:101130001127F02EF601848DF81211C00FB607FCAE
:10114000F9CFD6015096ED91FC915197808185FFA2
:10115000F1CFC60169830E9430086981EBCF838D8E
:10116000E80FF11DE35AFF4F6083D6015B960C93A5
:101170005B975296ED91FC915397808180620CC0F1
:10118000D6015696ED91FC91579760835096ED915C
:10119000FC91519780818064808381E090E00F9082
:1011A000DF91CF911F910F91FF90DF90CF90089525
:1011B000BF92CF92DF92EF92FF92CF93DF93EC0139
:1011C0006A017B01B22EE889F98982E080834115AA
:1011D00081EE580761057105A1F060E079E08DE3CB
:1011E00090E0A70196010E941C1C21503109410981
:1011F00051095695479537952795211580E1380770
:1012000098F0E889F989108260E874E88EE190E04E
:10121000A70196010E941C1C215031094109510966
:101220005695479537952795EC85FD853083EE8556
:10123000FF852083188EEC89FD89B082EA89FB89BD
:10124000808180618083EA89FB89808188608083D6
:10125000EA89FB89808180688083EA89FB898081B3
:101260008F7D8083DF91CF91FF90EF90DF90CF90C3
:10127000BF900895CF92DF92EF92FF920F931F934A
:10128000CF93DF936C017A01EB01E60EF71E00E0CD
:1012900010E0CE15DF0561F06991D601ED91FC916A
:1012A0000190F081E02DC6010995080F191FF1CFBB
:1012B000C801DF91CF911F910F91FF90EF90DF90C8
:1012C000CF9008956115710581F0DB010D9000202C
:1012D000E9F7AD0141505109461B570BDC01ED9177
:1012E000FC910280F381E02D099480E090E0089564
:1012F000EF92FF920F931F93CF93DF938C01FB012B
:10130000C0E0D0E064917F018FEFE81AF80A66230D
:1013100061F0D801ED91FC910190F081E02DC801C0
:101320000995C80FD91FF701EDCFCE01DF91CF91FD
:101330001F910F91FF90EF9008950C946209DC01CA
:10134000ED91FC910190F081E02D09946DE872E03F
:101350000C9462090F931F93CF93DF93EC010E94CB
:1013600062098C01CE010E94A609800F911FDF91B6
:10137000CF911F910F9108950F931F93CF93DF93F8
:10138000EC010E949F098C01CE010E94A609800FEA
:10139000911FDF91CF911F910F9108958F929F928E
:1013A000AF92BF92CF92DF92EF92FF920F931F9373
:1013B000CF93DF93CDB7DEB7A1970FB6F894DEBF1A
:1013C0000FBECDBF7C01C42EE52FCB01D22E19A2BA
:1013D00021E02D1510F02AE0D22E8E010F5D1F4F57
:1013E0008D2C912CA12CB12C6C2D7E2FA50194015C
:1013F0000E941C1C8C2DD29E8019112401501109B1
:101400008A3014F4805D01C0895CF8018083211565
:1014100031054105510521F0C22EE32FCA01E4CF69
:10142000B801C7010E946209A1960FB6F894DEBF09
:101430000FBECDBFDF91CF911F910F91FF90EF9025
:10144000DF90CF90BF90AF909F908F900895CF92F4
:10145000DF92EF92FF920F931F93CF93DF93EC01F4
:101460006A017B012115310579F4E881F981019048
:10147000F081E02D642FDF91CF911F910F91FF90AC
:10148000EF90DF90CF9009942A303105E9F477FF8F
:101490001AC06DE20E949F098C0144275527BA01AA
:1014A0004C195D096E097F092AE0CE010E94CE0920
:1014B000800F911FDF91CF911F910F91FF90EF90BF
:1014C000DF90CF9008952AE0B701A601CE01DF9109
:1014D000CF911F910F91FF90EF90DF90CF900C94E0
:1014E000CE099A01AB01662757FD6095762F0C94C3
:1014F000270A0F931F93CF93DF93EC019A01AB015F
:10150000662757FD6095762F0E94270A8C01CE0131
:101510000E94A609800F911FDF91CF911F910F911B
:1015200008952115310541F4DC01ED91FC91019004
:10153000F081E02D642F09940C94CE099A01462F76
:1015400050E060E070E00C94910A0F931F93CF93EA
:10155000DF93EC019A01AB0160E070E00E94910A18
:101560008C01CE010E94A609800F911FDF91CF91BF
:101570001F910F9108954091710350917203209132
:101580006F033091700342175307B4F49091E80051
:101590009570E1F39091E80092FD19C08093F100FD
:1015A000809171039091720301968F739927892B13
:1015B00019F48EEF8093E80080917103909172038B
:1015C0000196909372038093710381E0089580E007
:1015D0000895CF92DF92FF920F931F93CF93DF93E3
:1015E0001F92CDB7DEB7082F162F862F880F8E5F7C
:1015F00099830E94BB0A83E00E94BB0AF02EC02E92
:101600009981D92E8C2D8F19811778F4F601849148
:101610000E94BB0A082F80E00E94BB0A8023FFEFD4
:10162000CF1ADF0A8111EECF01C081E00F90DF9168
:10163000CF911F910F91FF90DF90CF90089561504F
:1016400030F02091F100FC0120830196F8CF28981A
:1016500084E68093740308952FB7FC012083F894E7
:1016600067706093E9000895CF93DF931F92CDB721
:10167000DEB7682FCE0101960E942C0B8091F200FC
:1016800099819FBF0F90DF91CF910895FF920F93A3
:101690001F93CF93DF9300D0CDB7DEB7F62E8A012C
:1016A00090917303992311F057FF03C08FEF9FEFC1
:1016B0002BC0682FCE0101967A830E942C0B80915B
:1016C000F20090E0A8017A81801791070CF4AC0138
:1016D000EF2DF72FF40E84E6FE1639F0289880934C
:1016E00074039091F1009193F7CF4115510521F0CA
:1016F0008091F200882321F089818FBFCA0104C044
:101700008BE68093E800F8CF0F900F90DF91CF9198
:101710001F910F91FF900895CF93DF931F92CDB744
:10172000DEB741E050E0BE016F5F7F4F0E94460B85
:10173000019719F4898190E002C08FEF9FEF0F901D
:10174000DF91CF910895CF93DF931F92CDB7DEB78E
:10175000682FCE0101960E942C0B9091E800892FF2
:10176000807295FF04C09091F20080E4891B9981FA
:101770009FBF0F90DF91CF9108956F927F928F92CC
:101780009F92AF92BF92CF92DF92EF92FF920F9310
:101790001F93CF93DF931F92CDB7DEB7782E7B01D7
:1017A000C42EB52E80917303882369F0042F152F62
:1017B0008AEFD82E872D8072982E9AE3A92E872D36
:1017C0008074882E11C08FEF9FEF57C0872D0E9425
:1017D000A30B682E81110CC0DA94A9F361E070E0CC
:1017E00080E090E00E940B150115110579F73BC0D0
:1017F000282F30E0021713070CF4602E672DCE015E
:1018000001960E942C0B8091E80085FF29C0262DAF
:1018100030E0021B130B992039F06A948FEF6816A1
:10182000B1F01092F100F9CFF701862D77FE07C0D5
:10183000815058F094919093F1003196F9CF8150F6
:1018400020F091919093F100FACFE20EF31E809177
:10185000E80085FF0FC00115110511F481100AC0C1
:1018600089818FBFC1CF5D9884E6809375038C2DED
:101870009B2D03C0A092E800F3CF0F90DF91CF9192
:101880001F910F91FF90EF90DF90CF90BF90AF909E
:101890009F908F907F906F9008951092E900109222
:1018A0007203109271039093700380936F030895F5
:1018B000CF92DF92FF920F931F93CF93DF9300D0CD
:1018C000CDB7DEB7F82E8A016B0101151105B1F015
:1018D000F601F7FE02C0849101C0808149835A83DA
:1018E0000E94BB0A01501109FFEFCF1ADF0A49819C
:1018F0005A818111EACF8FEF9FEF01C0CA010F908B
:101900000F90DF91CF911F910F91FF90DF90CF90BB
:1019100008951F93CF93DF931F92CDB7DEB7162F95
:101920002091E80022FFFCCF612F79830E941F0BDA
:101930008BEF8093E800812F7981972F0F90DF91B3
:10194000CF911F910895CF93DF931F92CDB7DEB74C
:101950001982CE0101960E946307CE0101960E9472
:10196000A715898190E00F90DF91CF9108951F9284
:101970000F920FB60F921124EF92FF920F931F93C5
:101980002F933F934F935F936F937F938F939F9387
:10199000AF93BF93EF93FF93CF93DF93CDB7DEB7B2
:1019A0006297DEBFCDBF1092E9008091E80083FF0F
:1019B000EBC068E0CE010A960E941F0B82EF809375
:1019C000E8009A8597FF05C08091E80080FFFCCF72
:1019D00003C08EEF8093E800892F807609F0B9C0AC
:1019E0008B85811105C01092F1001092F100C5C0E5
:1019F000282F2D7F213009F4C0C0853049F4809113
:101A0000E80080FFFCCF8C8580688093E300B5C040
:101A1000863009F076C02D85E888F988223071F586
:101A200080E090E02A8B0E944D0C0E94A30C99E06C
:101A30008E010F5F1F4FF801392F11923A95E9F788
:101A400099832A892A8391E09E8390E898879AEF68
:101A500099872091710330917203275F3F4F3C8338
:101A60002B838D83C7010E944D0C49E050E0B801E3
:101A700080E00E94580C0E94A30C7FC0C7012A8BF3
:101A80000E944D0C2A89223241F482E290E00E94A9
:101A9000B215892B09F071C074C0213069F48889AE
:101AA0009989089711F420936E0380916E03811138
:101AB00018C065E071E01AC0233009F062C08C855F
:101AC000882391F0823021F46CE083E291E006C03B
:101AD000813009F056C06BE087E191E00E94E90A8D
:101AE0004AC063EF70E002C060E371E06115710508
:101AF00009F447C0FB01449150E080E80E94580C73
:101B00003CC0873009F43DC0883021F481E08093E7
:101B1000F10033C0893089F5937099F5EFEEF0E06C
:101B200081E021E096E38093E9002093EB0034917B
:101B30003093EC009093ED008F5F3196853099F7EC
:101B40008EE78093EA001092EA008C8580937303FD
:101B500014C0888999890E944D0C8E85811105C019
:101B6000CE010A960E946E0706C0823051F4CE0163
:101B70000A960E94DA15882321F08EEF8093E80000
:101B800003C081E28093EB0062960FB6F894DEBF4B
:101B90000FBECDBFDF91CF91FF91EF91BF91AF917C
:101BA0009F918F917F916F915F914F913F912F9175
:101BB0001F910F91FF90EF900F900FBE0F901F900D
:101BC00018958093E9008091F200882319F08AE348
:101BD0008093E80008951F920F920FB60F92112480
:101BE0002F933F934F935F936F937F938F939F9325
:101BF000AF93BF93EF93FF938091E1001092E100C8
:101C000083FF0FC01092E90091E09093EB001092D7
:101C1000EC0092E39093ED001092730398E09093A0
:101C2000F00082FF1DC083E00E94E10D80917503EA
:101C3000882339F080917503815080937503882340
:101C400069F080917403882359F080917403815066
:101C500080937403811104C0289A02C05D9AF1CF69
:101C6000FF91EF91BF91AF919F918F917F916F9174
:101C70005F914F913F912F910F900FBE0F901F904A
:101C800018951092730381E08093D70080EA8093C7
:101C9000D80082E189BD09B400FEFDCF61E070E0AB
:101CA00080E090E00E940B1580E98093D8008CE0E2
:101CB0008093E2001092E000559A209A0895FC016A
:101CC000808191810C940E18CF93DF93EC01888171
:101CD0009981009711F00E940E18198218821D82B6
:101CE0001C821B821A82DF91CF9108950F931F935C
:101CF000CF93DF93EC018B016F5F7F4F88819981D8
:101D00000E949D18009731F0998388831B830A8372
:101D100081E001C080E0DF91CF911F910F91089584
:101D2000CF93DF93EC0188819981892B29F08A81F7
:101D30009B818617970760F4CE010E94760E882358
:101D400041F08C819D81892B19F4E881F981108201
:101D500081E0DF91CF910895EF92FF920F931F934F
:101D6000CF93DF93EC017B018A01BA010E94900EB0
:101D7000811104C0CE010E94640E07C01D830C8334
:101D8000B701888199810E947319CE01DF91CF91AB
:101D90001F910F91FF90EF900895FC011182108226
:101DA00013821282158214826115710559F0FB01AC
:101DB00001900020E9F7AF0141505109461B570B34
:101DC0000C94AC0E0895CF93DF93EC01FB018617C2
:101DD000970761F0608171816115710529F0448177
:101DE00055810E94AC0E02C00E94640ECE01DF91AC
:101DF000CF910895FC011182108213821282158204
:101E000014820C94E30EEF92FF920F931F93CF93E3
:101E1000DF93EC017B010C811D816115710511F4CB
:101E200080E016C04115510591F0040F151FB8014F
:101E30000E94900E8823A1F3288139818C819D8195
:101E4000B701820F931F0E9473191D830C8381E0D9
:101E5000DF91CF911F910F91FF90EF900895FB01BB
:101E600044815581608171810C94030F6115710566
:101E700059F0FB0101900020E9F7AF0141505109F1
:101E8000461B570B0C94030F80E0089508950E94A1
:101E900033150E94460F8DE693E00E94410E0E948A
:101EA0005101C2E2D8E00E946C062097E1F30E9443
:101EB0002208F9CFFC01238134812627022E2295A6
:101EC000207F2025032E322F22952F700226269563
:101ED00032272327220F220F220F2025FC013483D3
:101EE00023830895CF93DF93EC018D819E81DC01E4
:101EF000ED91FC916C810190F081E02D09958D812F
:101F00009E81DC01ED91FC910190F081E02D6B81CF
:101F1000DF91CF9109948F929F92AF92BF92CF920F
:101F2000DF92EF92FF92CF93DF93EC016B010E945F
:101F3000DC144B015C01E12CF12C8D819E81DC01D4
:101F4000ED91FC910680F781E02D099597FF0DC07A
:101F50000E94DC14681979098A099B096C157D05B2
:101F60008E059F0550F38FEF9FEFDF91CF91FF908C
:101F7000EF90DF90CF90BF90AF909F908F9008959B
:101F8000CF93DF93EC018D819E81DC01ED91FC917B
:101F90000480F581E02D09951816190654F48D81F9
:101FA0009E81DC01ED91FC910680F781E02D099581
:101FB000EACFDF91CF9108952F923F924F925F9297
:101FC0006F927F928F929F92AF92BF92CF92DF9249
:101FD000EF92FF920F931F93CF93DF93CDB7DEB7AE
:101FE0002D970FB6F894DEBF0FBECDBF3C011B018D
:101FF0003C832B83BF82AE825801AC0CBD1CA40E67
:10200000B51EBD824B2C512CCA01860F971F998794
:102010008887D901A00FB11FBB87AA87F601EE0DF3
:10202000FF1DFD87EC87D30118968C91581608F098
:1020300026C1EFEFFFEFD3011496FC93EE931397B5
:1020400015968D919C911697DC01ED91FC91019074
:10205000F081E02D6FEF09956FEFC3010E945A0FD9
:10206000F30185819681DC01ED91FC910190F08175
:10207000E02DD3016C910995F3016081C3010E94A9
:102080005A0FD30115968D919C911697DC01ED9115
:10209000FC910190F081E02D6D810995642DC301C3
:1020A0000E945A0FF30185819681DC01ED91FC912C
:1020B0000190F081E02D6A2D09956A2DC3010E94DF
:1020C0005A0F610188859985C816D906A1F0F301D8
:1020D000858196818601DC01ED91FC910190F08172
:1020E000E02DD6016D916D010995F8016081C30164
:1020F0000E945A0FE7CFCB80DC808A859B85C8166B
:10210000D906B1F0D30115968D919C911697860151
:10211000DC01ED91FC910190F081E02DD6016D91F3
:102120006D010995F8016081C3010E945A0FE5CF46
:1021300087018C859D8508171907B1F0D301159685
:102140008D919C9116976801DC01ED91FC910190B5
:10215000F081E02DD8016D918D010995F601608126
:10216000C3010E945A0FE5CFC3010E94720F64E6BB
:1021700070E0C3010E948B0F8F3F910509F074C07E
:10218000EFEFFFEFD3011496FC93EE9313976FEFED
:10219000C3010E945A0F65E070E0C3010E948B0FDB
:1021A000D3016C91262F30E08217930709F05CC0B1
:1021B000C3010E945A0F6AE070E0C3010E948B0FB6
:1021C0008C0197FD51C0682FC3010E945A0F6AE02D
:1021D00070E0C3010E948B0F6C0197FD45C0682F12
:1021E000C3010E945A0F0A83198209811A810C0DBA
:1021F0001D1DC12CD12C65E070E0C301C016D106B5
:10220000A1F0C814D90489F00E948B0F97FD09C072
:10221000EE81FF81EC0DFD1D8083682FC3010E94BC
:102220005A0FBFEFCB1ADB0AE6CF0E948B0F6C016F
:1022300097FD1AC065E070E0C3010E948B0F97FD07
:1022400013C0DC2CCC24C80ED91EF30183819481E9
:102250008C159D0549F480818F5F8083C8018016AD
:10226000910678F4C4010DC0539464E670E080E0F8
:1022700090E00E940B15C3010E94C00FD4CE8FEFD7
:102280009FEF2D960FB6F894DEBF0FBECDBFDF9146
:10229000CF911F910F91FF90EF90DF90CF90BF9063
:1022A000AF909F908F907F906F905F904F903F90F6
:1022B0002F9008953F924F925F926F927F928F92EC
:1022C0009F92AF92BF92CF92DF92EF92FF920F93C5
:1022D0001F93CF93DF93CDB7DEB72E970FB6F89449
:1022E000DEBF0FBECDBF3C01DC0117968C91179766
:1022F0008111CFC081E017968C93C3010E94C00F5B
:1023000068EE73E080E090E00E940B15F301858198
:102310009681DC01ED91FC910480F581E02D099519
:102320001816190654F355E0552E4424439462E3DD
:10233000362EE0E1F1E0DE011696852D01900D923A
:102340008A95E1F7F3014086812C912CA12CB12CC8
:10235000C12CD12CE12CF12C00E010E020E030E089
:1023600045E050E0BE016A5F7F4FC3010E94DC0F71
:1023700063E0D30115968D919C9116970E949F0959
:102380006AEF70E080E090E00E940B1562E471E07B
:10239000F301858196810E9478096AEF70E080E000
:1023A00090E00E940B1560E471E0D30115968D91C9
:1023B0009C9116970E94780964EF71E080E090E0AC
:1023C0000E940B1564E371E0F301858196810E9400
:1023D000780964EF71E080E090E00E940B15C30182
:1023E0000E94C00FE5E1F1E0DE011196852D01901C
:1023F0000D928A95E1F7D30118963C9244E0842E21
:10240000912CFE013B965F0120E030E045E050E07A
:10241000BE016F5F7F4FC3010E94DC0F8F3FFFEF54
:102420009F0739F468EE73E080E090E00E940B159E
:1024300080CF2B852111FFCF049711F52C8530E03B
:102440002053310944E6429FC001439F900D11245F
:102450002D8530E0205331096AE0629FA001639F1F
:10246000500D1124840F951F2E8530E02053310923
:10247000820F931FD30112969C938E93119705C0E0
:1024800084E690E0F3019283818382E3D30118967E
:102490008C932E960FB6F894DEBF0FBECDBFDF91A2
:1024A000CF911F910F91FF90EF90DF90CF90BF9051
:1024B000AF909F908F907F906F905F904F903F90E4
:1024C00008951092760387E993E090937C038093BC
:1024D0007B0310927D0310927E0390938003809380
:1024E0007F03089508958F929F92AF92BF92CF92EB
:1024F000DF92EF92FF920F931F9348015901C12C75
:10250000D12CE12CF12C00E010E020E030E00E9422
:10251000DC0F1F910F91FF90EF90DF90CF90BF9055
:10252000AF909F908F9008950F931F93CF93DF9359
:1025300000D01F92CDB7DEB729E42983FC012685A0
:102540002A836B8300E010E020E030E043E050E0BD
:10255000BE016F5F7F4F848595850E94731281E075
:1025600090E00F900F900F90DF91CF911F910F91FE
:102570000895EF92FF920F931F93CF93DF9300D0B4
:102580001F92CDB7DEB77C01FC018389811117C092
:10259000148A8FE4898386858A8380E48B839701FC
:1025A0002B5E3F4F00E410E043E050E0BE016F5F60
:1025B0007F4F848595850E947312F701838B0F905E
:1025C0000F900F90DF91CF911F910F91FF90EF909F
:1025D0000895CF93DF93EC010E94B9128B8990E0AC
:1025E000DF91CF910895CF93DF93EC010E94B91250
:1025F0008B89882359F081508B8B8C8991E0980FBF
:102600009C8BC80FD11D8D8990E002C08FEF9FEF8A
:10261000DF91CF910895CF93DF93EC010E94B9121F
:102620008B89882331F08C89C80FD11D8D8990E06A
:1026300002C08FEF9FEFDF91CF9108950F931F930B
:10264000CF93DF93EC018B016CE972E08889998963
:102650000E94360FB80188899989DF91CF911F9127
:102660000F910C942F0F6F927F928F929F92AF9247
:10267000BF92CF92DF92EF92FF920F931F93CF936F
:10268000DF9300D01F92CDB7DEB73C0182E58B838C
:10269000D3015096ED91FC915197048115812081D1
:1026A000318182E0882E912CFE0131965F01C12C90
:1026B000D12CE12CF12C41E050E0BE016D5F7F4F49
:1026C0001C968D919C911D970E94DC0F8A8190E051
:1026D000D3011F969C938E931E9750960D911C913B
:1026E00051970115110531F0C8010E945F0EC80114
:1026F0000E947317F301118A108A8981811102C027
:1027000081E0828B0F900F900F90DF91CF911F91FE
:102710000F91FF90EF90DF90CF90BF90AF909F9080
:102720008F907F906F9008950F931F93CF93DF93B7
:1027300000D01F92CDB7DEB722E72983FC012685A2
:102740002A8301E010E09E012D5F3F4F42E050E000
:10275000BE016F5F7F4F848595850E94731281E073
:102760009B81913009F080E00F900F900F90DF91E6
:10277000CF911F910F9108950F931F93CF93DF93E4
:1027800000D000D0CDB7DEB727E52B83FC0126852E
:102790002C8302E010E09E012F5F3F4F42E050E0AB
:1027A000BE016D5F7F4F848595850E94731289817C
:1027B00090E0982F88272A81820F911D0F900F900B
:1027C0000F900F90DF91CF911F910F910895EF928D
:1027D000FF920F931F93CF93DF9300D0CDB7DEB757
:1027E0007C01FC018289882389F087E789838685BB
:1027F0008A8300E010E020E030E042E050E0BE01DB
:102800006F5F7F4F848595850E947312F701128A4E
:102810000F900F90DF91CF911F910F91FF90EF904C
:1028200008952EEA32E0FC01318320830C94E713F3
:10283000EF92FF920F931F93CF93DF9300D0CDB70A
:10284000DEB77C0169837A830E94E71386E090E01B
:102850000E9471178C0169817A810E94FA0EF7013A
:10286000118B008B0F900F90DF91CF911F910F91E3
:10287000FF90EF900895EF92FF920F931F93CF93E5
:10288000DF9300D000D000D0CDB7DEB78C017B0144
:102890006EE972E0CE0101960E94CD0EBE016F5F1F
:1028A0007F4FC8010E941814CE0101960E945F0E4E
:1028B00067EA72E0CE0101960E94CD0EBE016F5F05
:1028C0007F4FC8010E941E13CE0101960E945F0E29
:1028D000B701C8010E941E13C8010E943313269637
:1028E0000FB6F894DEBF0FBECDBFDF91CF911F9121
:1028F0000F91FF90EF900895CF93DF93EC010E942A
:102900003B14CE010E949413882339F064E670E0F2
:1029100080E090E00E940B15F4CFCE01DF91CF91C3
:102920000C94BC131F920F920FB60F9211242F9389
:102930003F938F939F93AF93BF9380918203909126
:102940008303A0918403B09185033091810323E038
:10295000230F2D3720F40196A11DB11D05C026E8D7
:10296000230F0296A11DB11D209381038093820342
:1029700090938303A0938403B0938503809186038F
:1029800090918703A0918803B09189030196A11DBE
:10299000B11D8093860390938703A0938803B0931F
:1029A0008903BF91AF919F918F913F912F910F908C
:1029B0000FBE0F901F9018952FB7F8946091820367
:1029C0007091830380918403909185032FBF0895B4
:1029D0003FB7F8948091860390918703A091880374
:1029E000B091890326B5A89B05C02F3F19F0019629
:1029F000A11DB11D3FBF6627782F892F9A2F620F27
:102A0000711D811D911D42E0660F771F881F991F60
:102A10004A95D1F70895CF92DF92EF92FF92CF932C
:102A2000DF936B017C010E94E814EB01C114D10417
:102A3000E104F10489F00E9475170E94E8146C1BF0
:102A40007D0B683E734090F381E0C81AD108E1081D
:102A5000F108C851DC4FEACFDF91CF91FF90EF90A2
:102A6000DF90CF900895789484B5826084BD84B55A
:102A7000816084BD85B5826085BD85B5816085BD79
:102A8000EEE6F0E0808181608083E1E8F0E0108292
:102A9000808182608083808181608083E0E8F0E0D3
:102AA000808181608083E1E9F0E0808182608083C1
:102AB000808181608083E0E9F0E0808181608083B3
:102AC000E1ECF0E08081846080838081826080839B
:102AD000808181608083E3ECF0E08081816080838D
:102AE000E0ECF0E0808182608083E2ECF0E08081C5
:102AF00081608083EAE7F0E0808184608083808168
:102B0000826080838081816080838081806880830F
:102B10000895FF920F931F93CF93DF93EC01F62E4E
:102B2000E881F9810480F581E02D09958C01E88127
:102B3000F9810680F781E02D6F2DCE010995C8013E
:102B40009927DF91CF911F910F91FF900895FC017C
:102B500020812F5F208349E150E064EC71E080E840
:102B60000C94580C45E650E06DED71E080E80C9453
:102B7000580CEF92FF920F931F93CF93DF931F9206
:102B8000CDB7DEB789838B017A0141E050E0BE0109
:102B90006F5F7F4F84E00E94BD0BA701B80184E402
:102BA0000E94BD0B0F90DF91CF911F910F91FF906D
:102BB000EF900895FC0191818081813A31F481E0A8
:102BC000913091F0933089F411C0813271F49B30CF
:102BD00021F4828180930F0105C09A3031F4828103
:102BE00080930E0181E00895089580E0089548E003
:102BF00050E082E00C94B915CF93DF93DC01683884
:102C000018F0E8E7E60F25C0E62FF0E067FF11C0F7
:102C1000E058F10981E090E001C0880FEA95EAF7F9
:102C200014969C911497982B14969C931497E0E01B
:102C300010C0EC5BFE4FE491EE2309F440C0E7FFC7
:102C400008C014968C911497826014968C931497F4
:102C5000EF7716968C9116978E1741F117968C91F7
:102C600017978E1719F118968C9118978E17F1F007
:102C700019968C9119978E17C9F01A968C911A97FC
:102C80008E17A1F01B968C911B978E1779F080E020
:102C900090E0ED01C80FD91F2E81211102C0EE83F3
:102CA00005C0019686309105A1F709C0BD016C5F92
:102CB0007F4FCD010E94F71581E090E008C081E0D0
:102CC00090E013969C938E93129780E090E0DF91B2
:102CD000CF910895683818F0E8E7E60F25C0E62F91
:102CE000F0E067FF12C0E058F10921E030E001C0D8
:102CF000220FEA95EAF72095DC0114963C9114978F
:102D0000322314963C93E0E00FC0EC5BFE4FE4915D
:102D1000EE2329F1E7FF08C0DC0114962C911497EB
:102D20002D7F14962C93EF7720E030E0EE2351F0C6
:102D3000DC01A20FB31F16964C9116974E1302C0DA
:102D400016961C922F5F3F4F2630310579F7BC0154
:102D50006C5F7F4F0E94F71581E090E0089580E05E
:102D600090E00895FC011682178210861186128663
:102D700013861482BC016C5F7F4F0C94F715109280
:102D8000960310928D0310928C038EEB92E0909339
:102D90008B0380938A0308951F920F920FB60F92B0
:102DA00011242F938F939F93EF93FF93E091A703A9
:102DB000F091A8038081E091AD03F091AE0382FD14
:102DC00012C090818091B0038F5F8F732091B10307
:102DD000821751F0E091B003F0E0E956FC4F958F77
:102DE0008093B00301C08081FF91EF919F918F91FB
:102DF0002F910F900FBE0F901F9018951F920F925A
:102E00000FB60F9211242F933F934F935F936F93BD
:102E10007F938F939F93AF93BF93EF93FF9387E934
:102E200093E00E943008FF91EF91BF91AF919F9185
:102E30008F917F916F915F914F913F912F910F9063
:102E40000FBE0F901F90189587E993E00E94F50739
:102E500021E0892B09F420E0822F089510929A0333
:102E60001092990388EE93E0A0E0B0E080939B037A
:102E700090939C03A0939D03B0939E0381E892E0FE
:102E800090939803809397038DEC90E09093A40324
:102E90008093A3038CEC90E09093A6038093A5030A
:102EA00088EC90E09093A8038093A70389EC90E0CE
:102EB0009093AA038093A9038AEC90E09093AC03CB
:102EC0008093AB038EEC90E09093AE038093AD03C0
:102ED0001092B0031092B1031092B2031092B30398
:102EE00008950C9476170C940E180895CF93DF93E1
:102EF0008230910510F482E090E0E0913604F09188
:102F0000370420E030E0A0E0B0E0309739F14081B4
:102F1000518148175907B8F04817590771F4828151
:102F20009381109729F013969C938E9312972CC03F
:102F3000909337048093360427C02115310531F072
:102F40004217530718F0A901DB0101C0EF019A01F4
:102F5000BD01DF010280F381E02DD7CF21153105BE
:102F6000F9F0281B390B2430310580F48A819B81CC
:102F70006115710521F0FB019383828304C0909356
:102F8000370480933604FE01329644C0FE01E20FFE
:102F9000F31F8193919322503109398328833AC0DA
:102FA0002091340430913504232B41F42091020107
:102FB00030910301309335042093340420910001B3
:102FC000309101012115310541F42DB73EB74091F3
:102FD000040150910501241B350BE0913404F0915C
:102FE0003504E217F307A0F42E1B3F0B281739070F
:102FF00078F0AC014E5F5F4F2417350748F04E0F55
:103000005F1F50933504409334048193919302C021
:10301000E0E0F0E0CF01DF91CF910895CF93DF930F
:10302000009709F487C0FC01329713821282C09185
:103030003604D0913704209781F420813181280F04
:10304000391F80913404909135048217930779F5E4
:10305000F0933504E09334046DC0DE0120E030E0ED
:10306000AE17BF0750F412964D915C9113979D01D6
:103070004115510509F1DA01F3CFB383A2834081F1
:103080005181840F951F8A179B0771F48D919C9134
:103090001197840F951F02969183808312968D91CC
:1030A0009C911397938382832115310529F4F09322
:1030B0003704E09336043EC0D9011396FC93EE9397
:1030C00012974D915D91A40FB51FEA17FB0779F494
:1030D00080819181840F951F0296D90111969C934E
:1030E0008E938281938113969C938E931297E0E046
:1030F000F0E08A819B81009719F0FE01EC01F9CF85
:10310000CE01029628813981820F931F20913404C9
:10311000309135042817390769F4309729F4109253
:1031200037041092360402C013821282D093350401
:10313000C0933404DF91CF910895A0E0B0E0E3EABA
:10314000F8E10C94421CEC01CB01209719F40E9489
:103150007617B8C0FE01E60FF71F9E012250310915
:10316000E217F30708F4ACC0D9010D911C91119737
:1031700006171707B8F00530110508F49FC0A8011D
:10318000445051094617570708F498C002501109D6
:10319000061B170B019311936D937C93CF010E9433
:1031A0000E188CC05B01A01AB10A4E01800E911E50
:1031B000A0913604B0913704612C712C60E070E06E
:1031C000109709F449C0A815B905C9F5ED90FC9010
:1031D0001197670142E0C40ED11CCA14DB0478F1D8
:1031E00047018A189B08640142E0C40ED11C129664
:1031F000BC9012971396AC91B5E0CB16D10440F079
:10320000B282A38391828082D9018D939C9309C05D
:103210000E5F1F4F0E0D1F1DF90111830083EB2D53
:10322000FA2F6115710531F0DB011396FC93EE93D3
:10323000129744C0F0933704E09336043FC06D9179
:103240007C9111976616770608F43B01BD01129632
:103250000D90BC91A02DB4CF6091340470913504D1
:1032600068157905E9F468167906D0F440910001F3
:10327000509101014115510541F44DB75EB7609180
:10328000040170910501461B570BE417F507C0F4C4
:10329000F0933504E0933404F901918380830EC0E8
:1032A0000E9476177C01009759F0A801BE010E9488
:1032B0006A19CE010E940E18C70104C0CE0102C0D7
:1032C00080E090E0CDB7DEB7EEE00C945E1CF894A1
:1032D0000C947B1CFB01DC0102C001900D9241505B
:1032E0005040D8F70895FB01DC0101900D920020B9
:1032F000E1F70895AEE0B0E0E0E8F9E10C944C1C91
:103300000D891E8986E08C831A8309838FEF9FE7DE
:103310009E838D83AE01475E5F4F6F89788DCE01AE
:1033200001960E949C19EF81F885E00FF11F108231
:103330002E96E4E00C94681CACE0B0E0E2EAF9E11F
:103340000C943E1C7C016B018A01FC0117821682E1
:10335000838181FFBDC1CE0101964C01F7019381AC
:10336000F60193FD859193FF81916F01882309F404
:10337000ABC1853239F493FD859193FF81916F0143
:10338000853229F4B70190E00E948C1BE7CF512CC5
:10339000312C20E02032A0F48B3269F030F48032FE
:1033A00059F0833269F420612CC08D3239F08033BA
:1033B00039F4216026C02260246023C0286021C027
:1033C00027FD27C030ED380F3A3078F426FF06C0CD
:1033D000FAE05F9E300D1124532E13C08AE0389E10
:1033E000300D1124332E20620CC08E3221F426FDC4
:1033F0006BC1206406C08C3611F4206802C0883688
:1034000041F4F60193FD859193FF81916F01811144
:10341000C1CF982F9F7D9554933028F40C5F1F4F98
:10342000FFE3F9830DC0833631F0833771F08335C4
:1034300009F05BC022C0F801808189830E5F1F4FB5
:1034400044244394512C540115C03801F2E06F0E0E
:10345000711CF801A080B18026FF03C0652D70E0CB
:1034600002C06FEF7FEFC5012C870E94811B2C01EA
:1034700083012C852F77222E17C03801F2E06F0EC2
:10348000711CF801A080B18026FF03C0652D70E09B
:1034900002C06FEF7FEFC5012C870E94761B2C01C5
:1034A0002C852068222E830123FC1BC0832D90E0F5
:1034B00048165906B0F4B70180E290E00E948C1BD8
:1034C0003A94F4CFF50127FC859127FE81915F01A5
:1034D000B70190E00E948C1B31103A94F1E04F1A32
:1034E00051084114510471F7E5C0843611F0893652
:1034F00039F5F80127FF07C06081718182819381CE
:103500000C5F1F4F08C060817181882777FD80950F
:10351000982F0E5F1F4F2F76B22E97FF09C0909500
:103520008095709561957F4F8F4F9F4F2068B22E89
:103530002AE030E0A4010E94BE1BA82EA81844C0B7
:10354000853729F42F7EB22E2AE030E025C0F22FF5
:10355000F97FBF2E8F36C1F018F4883579F0B4C0EA
:10356000803719F0883721F0AFC02F2F2061B22E9D
:10357000B4FE0DC08B2D8460B82E09C024FF0AC094
:103580009F2F9660B92E06C028E030E005C020E1EC
:1035900030E002C020E132E0F801B7FE07C06081F0
:1035A0007181828193810C5F1F4F06C060817181A0
:1035B00080E090E00E5F1F4FA4010E94BE1BA82E6A
:1035C000A818FB2DFF77BF2EB6FE0BC02B2D2E7F2C
:1035D000A51450F4B4FE0AC0B2FC08C02B2D2E7EF8
:1035E00005C07A2C2B2D03C07A2C01C0752C24FF2A
:1035F0000DC0FE01EA0DF11D8081803311F4297E9A
:1036000009C022FF06C07394739404C0822F867889
:1036100009F0739423FD13C020FF06C05A2C7314C5
:1036200018F4530C5718732C731468F4B70180E224
:1036300090E02C870E948C1B73942C85F5CF73141B
:1036400010F4371801C0312C24FF12C0B70180E3F9
:1036500090E02C870E948C1B2C8522FF17C021FF35
:1036600003C088E590E002C088E790E0B7010CC095
:10367000822F867859F021FD02C080E201C08BE2E2
:1036800027FD8DE2B70190E00E948C1BA51438F451
:10369000B70180E390E00E948C1B5A94F7CFAA9464
:1036A000F401EA0DF11D8081B70190E00E948C1BAE
:1036B000A110F5CF332009F451CEB70180E290E09C
:1036C0000E948C1B3A94F6CFF7018681978102C045
:1036D0008FEF9FEF2C96E2E10C945A1CF999FECFE4
:1036E00092BD81BDF89A992780B50895FC01059097
:1036F000615070400110D8F7809590958E0F9F1FF4
:103700000895FC016150704001900110D8F7809538
:1037100090958E0F9F1F08950F931F93CF93DF9364
:10372000182F092FEB018B8181FD03C08FEF9FEFD5
:1037300020C082FF10C04E815F812C813D814217E5
:1037400053077CF4E881F9819F012F5F3F4F398354
:103750002883108306C0E885F985812F0995892B78
:1037600029F72E813F812F5F3F4F3F832E83812F8B
:10377000902FDF91CF911F910F910895FA01AA2701
:10378000283051F1203181F1E8946F936E7F6E5FA4
:103790007F4F8F4F9F4FAF4FB1E03ED0B4E03CD052
:1037A000670F781F891F9A1FA11D680F791F8A1F35
:1037B000911DA11D6A0F711D811D911DA11D20D09C
:1037C00009F468943F912AE0269F11243019305D56
:1037D0003193DEF6CF010895462F4770405D419347
:1037E000B3E00FD0C9F7F6CF462F4F70405D4A3394
:1037F00018F0495D31FD4052419302D0A9F7EACF5C
:10380000B4E0A6959795879577956795BA95C9F78A
:1038100000976105710508959B01AC010A2E06947D
:103820005795479537952795BA95C9F7620F731F36
:10383000841F951FA01D0895A1E21A2EAA1BBB1B71
:10384000FD010DC0AA1FBB1FEE1FFF1FA217B3076C
:10385000E407F50720F0A21BB30BE40BF50B661F82
:10386000771F881F991F1A9469F760957095809546
:1038700090959B01AC01BD01CF0108952F923F921D
:103880004F925F926F927F928F929F92AF92BF9270
:10389000CF92DF92EF92FF920F931F93CF93DF931C
:1038A000CDB7DEB7CA1BDB0B0FB6F894DEBF0FBE79
:1038B000CDBF09942A88398848885F846E847D84C6
:1038C0008C849B84AA84B984C884DF80EE80FD80C8
:1038D0000C811B81AA81B981CE0FD11D0FB6F8943E
:1038E000DEBF0FBECDBFED010895EE0FFF1F0590A7
:1038F000F491E02D099412E0CCE4D2E004C0FE0182
:103900000E94771C2296CE34D107C9F7F894FFCFD6
:1039100000003804800000E1000000000000010108
:103920005858585858585831303052756E6E696E24
:1039300067207077642E2E2E007077640045455006
:10394000524F4D206D656D6F72792066726F6D20DC
:1039500000307825252E25645800090020202000FD
:10396000466C617368206D656D6F72792066726F49
:103970006D2000537461636B20506F696E746572C3
:103980003A005352414D2066726F6D200030005353
:103990005441434B3A003078006966636F6E666944
:1039A00067005768617420646F20796F75207761B4
:1039B0006E743F00312E2044756D70205352414D7E
:1039C00000322E2044756D7020466C6173680033A0
:1039D0002E2044756D7020454550524F4D00342EB9
:1039E0002052756E2056756C6E657261626C652032
:1039F00046756E6374696F6E00352E20536F667462
:103A00007761726520526573657400362E204765B4
:103A100074206E6574776F726B20696E666F0047F5
:103A20006F696E6720746F205357207265736574D9
:103A30002E2E2E0052756E6E696E672076756C6E36
:103A4000657261626C652066756E6374696F6E2E57
:103A50002E2E0056756C6E657261626C65206675FF
:103A60006E6374696F6E20004F4B004B4F005772AE
:103A70006F6E67206F7074696F6E3A2000000000EF
:103A80000006074D07300740071C072D0700000000
:103A90000073083A09F5070E08000851080D0A00DE
:103AA0006E616E00696E66006F766600FE002F62C2
:103AB000696E2F617368002D63000000000094128E
:103AC0003A09E912F3120B13721200000000891573
:083AD0003A09FC156A16B21652
:00000001FF
