:100000000C9427010C945D010C945D010C945D012E
:100010000C945D010C945D010C945D010C945D01E8
:100020000C945D010C945D010C948B100C94E60E05
:100030000C945D010C945D010C945D010C945D01C8
:100040000C945D010C945D010C945D010C945D01B8
:100050000C945D010C945D010C945D010C941718D7
:100060000C945D010C94D61A0C940F1B0C945D013A
:100070000C945D010C945D010C945D010C945D0188
:100080000C945D010C945D010C945D010C945D0178
:100090000C945D010C945D010C945D010C945D0168
:1000A0000C945D010C945D010C945D01080B000241
:1000B0000202010009040000010202000005240000
:1000C0001001052401010104240206052406000193
:1000D0000705810310004009040100020A00000026
:1000E000070502024000000705830240000000C12E
:1000F0008081C112010002020000404123418000C2
:1001000001010200011201000200000040412341F0
:100110008000010102000141726475696E6F204C1C
:100120004C430055534220494F20426F6172640096
:100130000403090472756E2D6272696467650A00B2
:100140000A000A0000000000000000002A2B28001E
:10015000000000000000000000000000000000009F
:10016000000000002C9EB4A0A1A2A434A6A7A5AEB6
:10017000362D3738271E1F20212223242526B3336E
:10018000B62EB7B89F8485868788898A8B8C8D8E9A
:100190008F909192939495969798999A9B9C9D2F66
:1001A0003130A3AD350405060708090A0B0C0D0E06
:1001B0000F101112131415161718191A1B1C1DAF46
:1001C000B1B0B500090402000103000000092101DB
:1001D00001000122650007058403400001050109B3
:1001E00002A1010901A100850105091901290315D1
:1001F00000250195037501810295017505810305AF
:10020000010930093109381581257F750895038169
:1002100006C0C005010906A1018502050719E029EC
:10022000E715002501750195088102950175088182
:1002300003950675081500256505071900296581D0
:1002400000C0BC062C09BA15C91A471BE1061124C7
:100250001FBECFEFDAE0DEBFCDBF12E0A0E0B1E01D
:10026000EAEEF4E40C94360105900D92A83CB10737
:1002700009F402C00C94340124E0A8EC0C94400171
:10028000B2E00C9444011D92A833B20709F402C0F5
:100290000C94430112E0CCE4D2E00C945301229779
:1002A000FE010E946022C234D10709F402C00C94FE
:1002B0004F010E9439120C94331E0C94000040E848
:1002C00055E260E070E08DE193E00E94160926E0BF
:1002D00040E950ED63E070E080917F0390918003EE
:1002E0000E94580A86E793E00E9499148DE193E0FA
:1002F0000E941C0988230000000000000C9480016B
:1003000009F002C00C94760108955F926F927F927B
:100310008F929F92AF92BF92CF92DF92EF92FF9215
:100320000F931F93CF93DF93CDB7DEB7C059D10999
:100330000FB6F894DEBF0FBECDBF6DE271E08DE168
:1003400093E00E94370B40E150E060E070E08DE107
:1003500093E00E942D0C1F9284E08F9381E491E042
:100360009F938F93CE0101967C01FF928F930E9401
:100370004F1E1F921F92FF92EF926E010C94C001CC
:1003800091E8C90ED11CDF92CF920E944F1EB60198
:100390008DE193E00E94370B6AE471E08DE193E018
:1003A0000E94370B0FB6F894DEBF0FBECDBF00E042
:1003B00010E084E0582E91E4892E91E0992E23E4F8
:1003C000622E21E0722EC8018F709927892B09F0C7
:1003D00002C00C94ED010C944B020115110509F4B7
:1003E00002C00C94F5010C944B026AE471E08DE1BB
:1003F00093E00E94370B5801F0E1AF1A0C94000211
:10040000B108A016B10608F402C00C942302C5017D
:100410000E94102190EE980F9F3508F002C00C94B6
:10042000190267E271E08DE193E00E94370B0C94B2
:100430001E02682F8DE193E00E94390B8FEFA81AFE
:10044000B80A0C9401028DE193E00E94420B1F92C6
:100450005F929F928F92FF92EF920E944F1E1F9386
:100460000F93FF92EF92DF92CF920E944F1EB60140
:100470008DE193E00E94370B6AE471E00C94400236
:100480008DE193E00E94370B0FB6F894DEBF0FBEEC
:10049000CDBF0C945F02C80187709927892B09F49E
:1004A00002C00C945F020115110509F002C00C9402
:1004B0005F026DE471E08DE193E00E94370BC801AB
:1004C0000E941021B82E1F925F927F926F92FF922E
:1004D000EF920E944F1E2B2D332727FD30953F931F
:1004E000BF92FF92EF92DF92CF920E944F1EF601D1
:1004F00062818DE193E00E94390BF6010C94800239
:1005000063818DE193E00E94390B6EE471E08DE12F
:1005100093E00E94370B0F5F1F4F0FB6F894DEBFBA
:100520000FBECDBF013094E0190709F002C00C9452
:100530009B020C94E30100E010E07801FFEFEF1A5A
:10054000FBEFFF0A0F30110509F002C00C94C20244
:100550006CE471E08DE193E00E94370BE7E0EE225E
:10056000FF24EF2809F402C00C94BC026DE471E092
:100570008DE193E00E94370B0F5F1F4F0C94C00278
:100580000C949D026AE471E08DE193E00E94370BC8
:100590008FEF93E00E94102190EE980F9F3508F0A6
:1005A00002C00C94DB0267E271E08DE193E00E94EF
:1005B000370B0C94E002682F8DE193E00E94390B19
:1005C0008DE193E00E94420BC057DF4F0FB6F894C5
:1005D000DEBF0FBECDBFDF91CF911F910F91FF9076
:1005E000EF90DF90CF90BF90AF909F908F907F90D3
:1005F0006F905F9008952F923F924F920C9400035A
:100600005F926F927F928F929F92AF92BF92CF92A2
:10061000DF92EF92FF920F931F93CF93DF93CDB7AB
:10062000DEB7C059D1090FB6F894DEBF0FBECDBFFB
:100630005C014B016115710509F402C00C9424039F
:100640004EEF842E4FE7942E60E571E08DE193E04C
:100650000E94370B350140E150E0B5018DE193E098
:100660000E942D0C1F9284E08F9381E491E09F9370
:100670008F938E010F5F1F4F1F930F930C944003B6
:100680000E944F1EBF92AF921F930F937E0181E88D
:10069000E80EF11CFF92EF920E944F1EB7018DE110
:1006A00093E00E94370B6AE471E08DE193E00E94D1
:1006B000370B0FB6F894DEBF0FBECDBFC12CD12CC7
:1006C000861497040CF402C00C9468030C94230461
:1006D0001501260C371CC6018F709927892B09F04C
:1006E00002C00C9475030C94D403C114D10409F412
:1006F00002C00C947D030C94D4036AE40C94800330
:1007000071E08DE193E00E94370B31E1432E512CD3
:10071000B1E04B1A510809F002C00C94A803F10192
:10072000E419F509649180EE860F8F3508F002C058
:100730000C94A20367E271E08DE193E00E94370B15
:100740000C9488038DE193E00E94390B0C9488038C
:100750008DE193E00E94420B1F92E4E0EF93A1E44D
:10076000B1E0BF93AF931F930F930E944F1E7F92F0
:100770006F921F930F93FF92EF9200000C94C003AF
:100780000E944F1EB7018DE193E00E94370B6AE48F
:1007900071E08DE193E00E94370B0FB6F894DEBF55
:1007A0000FBECDBF0C94E803C60187709927892B33
:1007B00009F402C00C94E803C114D10409F002C08A
:1007C0000C94E8036DE471E08DE193E00E94370B37
:1007D000F10124901F92F4E0FF93A3E4B1E0BF93F2
:1007E000AF931F930F930E944F1E822D992787FD71
:1007F00090959F932F921F930F93FF920C94000458
:10080000EF920E944F1ED70112966C918DE193E0FA
:100810000E94390BF70163818DE193E00E94390B4F
:100820006EE471E08DE193E00E94370BFFEF6F1AE9
:100830007F0A8FEFC81AD80A0FB6F894DEBF0FBE32
:10084000CDBF0C946003E12CF12C87010C0D1D1D14
:10085000C8018F709927892B09F002C00C944A04B3
:100860006CE471E08DE193E00E94370B0770112773
:10087000012B09F402C00C9445046DE40C9440046F
:1008800071E08DE193E00E94370BBFEFEB1AFB0A9A
:100890000C9425046AE471E08DE193E00E94370B2B
:1008A0008401005111090E0D1F1D081519050CF4C6
:1008B00002C00C947604F501E00FF11F649180EE04
:1008C000860F8F3508F002C00C946E0467E271E069
:1008D0008DE193E00E94370B0C9472048DE193E05C
:1008E0000E94390B0F5F1F4F0C9455048DE193E06C
:1008F0000E94420BC057DF4F0FB6F8940C9480044F
:10090000DEBF0FBECDBFDF91CF911F910F91FF9042
:10091000EF90DF90CF90BF90AF909F908F907F909F
:100920006F905F904F903F902F900895CF92DF92FD
:10093000EF92FF920F931F93CF93DF938C017B0174
:100940006115710509F402C00C94AA04EE24EA941E
:100950005AE0F52E63E671E08DE193E00E94370BDB
:100960006DB77EB740E150E08DE193E00E945E0CF0
:1009700062E771E08DE193E00E94370B0C94C004B4
:10098000E80140E150E0B8018DE193E00E942D0CB8
:1009900040E150E0B8018DE193E00E94250C6AE44B
:1009A00071E08DE193E00E94370B00E010E0EC165F
:1009B000FD060CF402C00C94DF040C945B05C80126
:1009C0008F709927892B09F402C00C942605011514
:1009D000110509F002C00C9426056AE471E08DE16E
:1009E00093E00E94370B6E0180E1C81AD108CC1643
:1009F000DD0609F002C00C941705F6010C94000501
:100A000061916F0180EE860F8F3508F002C00C9463
:100A1000110567E271E08DE193E00E94370B0C94C1
:100A2000F7048DE193E00E94390B0C94F7048DE1FB
:100A300093E00E94420B40E150E0BE018DE193E063
:100A40000E94250C6AE471E00C943605C801877099
:100A50009927892B09F402C00C943A050115110558
:100A600009F002C00C943A056DE471E08DE193E069
:100A70000E94370B88818031000000000C944005F3
:100A800008F402C00C944A056DE771E08DE193E033
:100A90000E94370B40E150E069918DE193E00E94A4
:100AA000570C6EE471E08DE193E00E94370B0F5F0D
:100AB0001F4F0C94D704C12CD12CE601C00FD11FBD
:100AC000CE018F709927892B09F002C00C94820502
:100AD0006CE471E08DE193E00E94370BC770DD2775
:100AE000CD2B09F402C00C947B056DE471E08DE11F
:100AF00093E00E94370BFFEFCF1ADF0A0C948005BA
:100B00000C945D056AE471E08DE193E00E94370B7F
:100B1000E7016097CC0DDD1DCE15DF050CF402C09A
:100B20000C94A805699180EE860F8F3508F002C0FD
:100B30000C94A20567E271E08DE193E00E94370B0F
:100B40000C948C058DE193E00E94390B0C948C057C
:100B50008DE193E0DF91CF911F910F91FF90EF9086
:100B6000DF90CF900C94420BEF92FF920F931F9364
:100B7000CF93DF93EC016FE771E08DE10C94C0053A
:100B800093E00E94460B66E871E08DE193E00E94DD
:100B9000370B40E150E0BE018DE193E00E94250C4F
:100BA0006AE471E08DE193E00E94370B00E010E011
:100BB000C115FBE0DF070CF002C00C94E1050C94BA
:100BC0006706C8018F709927892B09F402C00C941D
:100BD00031060115110509F002C00C9431066AE4D2
:100BE00071E08DE193E00E94370B7E0180E1E81A0D
:100BF000F108EC16FD060000000000000C94000651
:100C000009F002C00C941C06F70161917F0180EE8F
:100C1000860F8F3508F002C00C94160667E271E06B
:100C20008DE193E00E94370B0C94F9058DE193E080
:100C30000E94390B0C94F9058DE193E00E94420B60
:100C400066E871E08DE193E00E94370B40E150E0EF
:100C5000BE018DE193E00E94250C6AE471E00C94E2
:100C60004606C80187709927892B09F402C00C94A5
:100C70004A06011511050000000000000C94400612
:100C800009F002C00C944A066DE471E08DE193E036
:100C90000E94370B8881803108F402C00C945606FC
:100CA0006DE771E08DE193E00E94370B40E150E089
:100CB00069918DE193E00E94570C6EE471E08DE143
:100CC00093E00E94370B0F5F1F4F0C94D805C0E0D4
:100CD000D0E07E01E00EF11EC7018F709927892BAD
:100CE00009F002C00C948D066CE471E08DE193E094
:100CF0000E94370B87E0E822FF24EF280C9480063F
:100D000009F402C00C948A066DE471E08DE193E071
:100D10000E94370B21960C9469066AE471E08DE11C
:100D200093E00E94370BC151D54FCF3FEAE0DE0779
:100D30000CF402C00C94B206699180EE860F8F35D8
:100D400008F002C00C94AC0667E271E08DE193E01C
:100D50000E94370B0C9495068DE193E00E94390BAD
:100D60000C9495068DE193E0DF91CF911F910F9147
:100D7000FF90EF900C94420B1092CB020C94C006A3
:100D80001092CA0288EE93E0A0E0B0E08093CC021B
:100D90009093CD02A093CE02B093CF028EEA92E060
:100DA0009093C9028093C80286E793E09093D5029E
:100DB0008093D4021092DA021092DB021092DC02CD
:100DC000089588EC92E00C948D170F931F93CF93A6
:100DD000DF93CDB7DEB764970FB6F894DEBF0FBED2
:100DE000CDBF8DB79EB70E94B4058DE193E00E9400
:100DF0005B08892B09F002C00C94F5060C940007DF
:100E000000E010E08DE193E00E945B08892B09F07F
:100E100002C00C941A078DE193E00E946C08E1E097
:100E2000F0E0EC0FFD1FE00FF11F80830F5F1F4FFD
:100E30000C9402078DB79EB70E94B40580E090E045
:100E400064960FB6F894DEBF0FBECDBFDF91CF9191
:100E50001F910F91089588EC92E00E94061781116E
:100E60000C942B078DE193E00E94420B88EC92E0FA
:100E70000E94491618161906000000000C9440073D
:100E80000CF402C00C944F0788EC92E00E945316B9
:100E9000682F8DE193E00E94390B0C9436078DE1A9
:100EA00093E00C945808CF93DF9300D000D000D08B
:100EB000CDB7DEB769E871E0CE0101960E949E11C0
:100EC000BE016F5F7F4F88EC92E00E94FA17CE015F
:100ED00001960E9415110E942B0726960FB6F894D2
:100EE000DEBF0FBECDBFDF91CF910895CF93DF93CB
:100EF00062E971E08DE193E00E94460B0C9480075B
:100F000064EA71E08DE193E00E94460B61EB71E0D1
:100F10008DE193E00E94460B6FEB71E08DE193E071
:100F20000E94460B6EEC71E08DE193E00E94460B4F
:100F300069EE71E08DE193E00E94460B6BEF71E08A
:100F40008DE193E00E94460B8DE193E00E945B08E7
:100F5000892B09F002C00C94A4078DE193E00E9454
:100F60006C08C82F8DE193E00E946C08C13309F42E
:100F700002C00C94C50760E070E080E00C94C007EC
:100F800090E0DF91CF910C949604C23309F402C033
:100F90000C94D20760E070E080E090E0DF91CF91A8
:100FA0000C94FB02C33309F402C00C94DB07DF91FD
:100FB000CF910C948501C53309F402C00C94F2075B
:100FC0006FE072E08DE193E00E94460B28E088E13B
:100FD00090E00FB6F894A895809360000FBE209320
:100FE0006000FFCFC43309F402C00C94180864E217
:100FF00072E08DE193E00E94370B00000C94000832
:101000000E94E506EC0163E472E08DE193E00E944A
:10101000370BD7FD0C94100868E572E00C941208A9
:101020006BE572E08DE193E0DF91CF910C94460B7C
:10103000C63309F402C00C942108DF91CF910C94BF
:1010400053076EE572E08DE193E00E94370B6C2F41
:101050008DE193E0DF91CF910C94580BCF93DF9308
:101060001F92CDB7DEB76983DC01ED91FC91028060
:10107000F381E02D41E050E0BE016F5F0C94400829
:101080007F4F09950F90DF91CF910895CF93DF9314
:10109000EC018C859D8597FF0C94530882E00E949B
:1010A000750D9D878C878C859D85DF91CF910895E7
:1010B00083E00C947C10FC018485958597FD0C944D
:1010C000670882E00E94060D90E00196089582E094
:1010D0000E94060D90E00895FC018485958597FD9A
:1010E0000C9477082FEF3FEF35872487089582E02F
:1010F0000C94750DCF93DF93EC0100000C948008E5
:1011000080910D01882309F002C00C94900883E0BF
:101110000E94AD0D181619060CF002C00C9496082A
:1011200081E090E09B838A8380E090E0DF91CF9123
:101130000895FC0120812E5F208342E450E06CEA98
:1011400070E080E80C947A0EFC0181819081913AE4
:1011500009F402C00C94BC08813209F002C00C945E
:10116000B3080C94050947E050E066E071E080E0C8
:101170000E947A0E0C941409913200000C94C0085D
:1011800009F402C00C940509803209F402C00C94E1
:10119000D10867E070E086E091E00E94B40E0C9404
:1011A000DB08823209F002C00C94D8080C941409B0
:1011B000828180930D018091060190910701A09199
:1011C0000801B0910901803B9440A105B10509F4E3
:1011D00002C00C94070980910D0180FD0C94070951
:1011E00087E797E790930108809300082BE088E158
:1011F00090E00FB6F894A895809360000C940009D5
:101200000FBE209360000C94140980E0089588E1DB
:101210000FB6F89480936000109260000FBEA895FE
:10122000109201081092000881E008952FEF3FEF1F
:10123000FC01358724870895CF93C0910D016AE0A2
:1012400070E080E090E00E94A01881E0C1110C9451
:101250002A0980E0CF9108951092200310921F0375
:1012600088EE93E0A0E0B0E0809321039093220306
:10127000A0932303B093240381E792E00C944009E8
:1012800090931E0380931D038FEF9FEF90932A038B
:10129000809329030895FC01818D228D90E0805C6C
:1012A0009F4F821B91098F7399270895FC01918D9F
:1012B000828D981709F002C00C946409828DE80FA2
:1012C000F11D858D90E008958FEF9FEF0895FC014B
:1012D000918D828D981709F002C00C947B09828D44
:1012E000DF01A80FB11D5D968C91928D9F5F9F735A
:1012F000928F90E008958FEF9FEF08950C948009EE
:1013000084E297E1892B09F002C00C94930980E0F4
:1013100090E0892B09F002C00C9493090E94351BC0
:1013200081110C9400000895FC01848DDF01A80F49
:10133000B11DA35ABF4F2C91848D90E001968F73FD
:101340009927848FA689B7892C93A089B1898C911C
:1013500080648C93938D848D98130C94B5090288C6
:10136000F389E02D80818F7D80830895CF93DF9373
:10137000EC01888D88230000000000000C94C00957
:1013800009F002C00C94E309EA89FB89808185FD9C
:101390000C94D009A889B9898C9186FD0C94E30935
:1013A0000FB607FC0C94C609808185FF0C94C60912
:1013B000A889B9898C9185FF0C94C609CE010E9439
:1013C00094090C94C409DF91CF910895CF92DF92D4
:1013D000FF920F931F93CF93DF931F92CDB7DEB78A
:1013E0006C0181E0D60158968C9358975B969C913E
:1013F0005B975C968C915C97000000000C94000A4F
:1014000098130C940B0A5096ED91FC9151978081A2
:1014100085FD0C94400AF601038D10E00F5F1F4F0D
:101420000F731127F02EF601848DF8120C942C0AFC
:101430000FB607FC0C94130AD6015096ED91FC915F
:101440005197808185FF0C94130AC60169830E941D
:10145000940969810C94130A838DE80FF11DE35AF6
:10146000FF4F6083D6015B960C935B975296ED918C
:10147000FC915397808180620C944C0A0C94400A32
:10148000D6015696ED91FC91579760835096ED9159
:10149000FC91519780818064808381E090E00F907F
:1014A000DF91CF911F910F91FF90DF90CF90089522
:1014B000BF92CF92DF92EF92FF92CF93DF93EC0136
:1014C0006A017B01B22EE889F98982E080834115A7
:1014D00081EE58076105710509F002C00C94890A74
:1014E00060E079E08DE390E0A70196010E94FC2185
:1014F0002150310941095109569547950C94800AAC
:1015000037952795211580E1380708F002C00C9423
:101510009C0AE889F989108260E874E88EE190E01D
:10152000A70196010E94FC2121503109410951096E
:101530005695479537952795EC85FD853083EE8543
:10154000FF852083188EEC89FD89B082EA89FB89AA
:10155000808180618083EA89FB89808188608083C3
:10156000EA89FB89808180688083EA89FB898081A0
:101570008F7D8083DF91CF91FF90EF900C94C00A14
:10158000DF90CF90BF900895CF92DF92EF92FF92BD
:101590000F931F93CF93DF936C017A01EB01E60E5B
:1015A000F71E00E010E0CE15DF0509F002C00C9434
:1015B000E60A6991D601ED91FC910190F081E02D50
:1015C000C6010995080F191F0C94D30AC801DF91B1
:1015D000CF911F910F91FF90EF90DF90CF900895E2
:1015E0006115710509F002C00C940B0BDB010D9025
:1015F000002009F402C00C94F70AAD010C94000B12
:1016000041505109461B570BDC01ED91FC910280C2
:10161000F381E02D099480E090E00895EF92FF922D
:101620000F931F93CF93DF938C01FB01C0E0D0E0B9
:1016300064917F018FEFE81AF80A662309F002C06F
:101640000C942F0BD801ED91FC910190F081E02DCD
:10165000C8010995C80FD91FF7010C94180BCE01CA
:10166000DF91CF911F910F91FF90EF9008950C940F
:10167000F00ADC01ED91FC910190F0810C94400B9B
:10168000E02D09946DE872E00C94F00A0F931F931B
:10169000CF93DF93EC010E94F00A8C01CE010E94EF
:1016A000420B800F911FDF91CF911F910F910895F1
:1016B0000F931F93CF93DF93EC010E94390B8C01A2
:1016C000CE010E94420B800F911FDF91CF911F919D
:1016D0000F9108958F929F92AF92BF92CF92DF9217
:1016E000EF92FF920F931F93CF93DF93CDB7DEB7A7
:1016F000A1970FB6F894DEBF0FBECDBF0C94800B40
:101700007C01C42EE52FCB01D22E19A221E02D158C
:1017100008F002C00C948E0B2AE0D22E8E010F5DD1
:101720001F4F8D2C912CA12CB12C6C2D7E2FA5013F
:1017300094010E94FC218C2DD29E8019112401500D
:1017400011098A300CF402C00C94A90B805D0C9432
:10175000AA0B895CF80180832115310541055105EB
:1017600009F002C00C94B90BC22EE32FCA010C94ED
:10177000950BB801C7010E94F00AA1960C94C00B0A
:101780000FB6F894DEBF0FBECDBFDF91CF911F9192
:101790000F91FF90EF90DF90CF90BF90AF909F9010
:1017A0008F900895CF92DF92EF92FF920F931F9345
:1017B000CF93DF93EC016A017B012115310509F418
:1017C00002C00C94F20BE881F9810190F081E02DC8
:1017D000642FDF91CF911F910F91FF90EF90DF90D9
:1017E000CF9009942A30310509F402C00C94180CEA
:1017F00077FF0C94170C6DE20E94390B0C94000CCF
:101800008C0144275527BA014C195D096E097F09DF
:101810002AE0CE010E946A0B800F911FDF91CF91C9
:101820001F910F91FF90EF90DF90CF9008952AE0E5
:10183000B701A601CE01DF91CF911F910F91FF90CB
:10184000EF90DF90CF900C946A0B9A01AB01662762
:1018500057FD6095762F0C94D20B0F931F93CF9367
:10186000DF93EC019A01AB01662757FD6095762F57
:101870000E94D20B8C01CE010E94420B0C94400CB2
:10188000800F911FDF91CF911F910F910895211526
:10189000310509F402C00C94550CDC01ED91FC916A
:1018A0000190F081E02D642F09940C946A0B9A0149
:1018B000462F50E060E070E00C94470C0F931F93AC
:1018C000CF93DF93EC019A01AB0160E070E00E94DE
:1018D000470C8C01CE010E94420B800F911FDF91BB
:1018E000CF911F910F910895409171035091720310
:1018F00020916F0330917003421753070C94800CB2
:101900000CF402C00C94A10C9091E800957009F0C1
:1019100002C00C94840C9091E80092FD0C94AC0CE5
:101920008093F100809171039091720301968F73FF
:101930009927892B09F402C00C94A10C8EEF809397
:10194000E800809171039091720301969093720365
:101950008093710381E0089580E00895CF92DF9233
:10196000FF920F931F93CF93DF931F92CDB7DEB7F4
:10197000082F162F862F880F8E5F99830C94C00C2A
:101980000E94740C83E00E94740CF02EC02E99818A
:10199000D92E8C2D8F19811708F402C00C94E10CFC
:1019A000F60184910E94740C082F80E00E94740C50
:1019B0008023FFEFCF1ADF0A81110C94C90C0C941D
:1019C000E20C81E00F90DF91CF911F910F91FF907A
:1019D000DF90CF900895615008F002C00C94F70C8E
:1019E0002091F100FC01208301960C94EB0C2898C7
:1019F00084E68093740308952FB7FC010C94000DC6
:101A00002083F89467706093E9000895CF93DF9383
:101A10001F92CDB7DEB7682FCE0101960E94FC0C55
:101A20008091F20099819FBF0F90DF91CF9108952F
:101A3000FF920F931F93CF93DF9300D0CDB7DEB704
:101A4000F62E8A0190917303992309F002C00C9439
:101A50002C0D57FF0C94300D8FEF9FEF0C946D0DF4
:101A6000682FCE0101967A830E94FC0C8091F200CF
:101A700090E0A8017A818017910700000C94400D36
:101A80000CF402C00C94450DAC01EF2DF72FF40EB1
:101A900084E6FE1609F002C00C94560D2898809337
:101AA00074039091F10091930C94490D41155105E7
:101AB00009F002C00C94630D8091F200882309F0B4
:101AC00002C00C94680D89818FBFCA010C946D0D02
:101AD0008BE68093E8000C94630D0F900F90DF91DC
:101AE000CF911F910F91FF900895CF93DF931F9295
:101AF000CDB7DEB741E050E0BE016F5F0C94800DC2
:101B00007F4F0E94180D019709F402C00C948C0DB0
:101B1000898190E00C948E0D8FEF9FEF0F90DF91F5
:101B2000CF910895CF93DF931F92CDB7DEB7682F83
:101B3000CE0101960E94FC0C9091E800892F8072E2
:101B400095FF0C94A70D9091F20080E4891B998178
:101B50009FBF0F90DF91CF9108956F927F928F92E8
:101B60009F92AF92BF92CF92DF92EF92FF920F932C
:101B70001F93CF93DF931F92CDB7DEB70C94C00DA8
:101B8000782E7B01C42EB52E80917303882309F033
:101B900002C00C94D90D042F152F8AEFD82E872D53
:101BA0008072982E9AE3A92E872D8074882E0C942B
:101BB000EF0D8FEF9FEF0C945F0E872D0E94920D1B
:101BC000682E81110C94F70DDA9409F002C00C9480
:101BD000D90D61E070E080E090E00E94A01801154E
:101BE000110509F402C00C94DD0D0C94530E282F3E
:101BF00030E0021713070000000000000C94000EF4
:101C00000CF402C00C94050E602E672DCE010196D7
:101C10000E94FC0C8091E80085FF0C944F0E262D4D
:101C200030E0021B130B992009F002C00C94230E24
:101C30006A948FEF681609F002C00C94410E10925E
:101C4000F1000C94180EF701862D77FE0C94330EDC
:101C5000815008F002C00C943D0E94919093F100D5
:101C600031960C94280E815008F002C00C943D0E61
:101C700091919093F1000C94330EE20E0C94400E6F
:101C8000F31E8091E80085FF0C945B0E0115110591
:101C900009F402C00C944F0E81100C945B0E8981E4
:101CA0008FBF0C94EF0D5D9884E6809375038C2DA7
:101CB0009B2D0C945F0EA092E8000C944F0E0F9099
:101CC000DF91CF911F910F91FF90EF90DF90CF9018
:101CD000BF90AF909F908F907F906F9008951092DB
:101CE000E900109272031092710390937003809335
:101CF0006F030895CF92DF92FF920F930C94800EA2
:101D00001F93CF93DF9300D0CDB7DEB7F82E8A01B3
:101D10006B010115110509F002C00C94A90EF60122
:101D2000F7FE0C94960E84910C94970E8081498353
:101D30005A830E94740C01501109FFEFCF1ADF0A79
:101D400049815A8181110C94890E8FEF9FEF0C9479
:101D5000AA0ECA010F900F90DF91CF911F910F91A2
:101D6000FF90DF90CF9008951F93CF93DF931F9242
:101D7000CDB7DEB7162F2091E80000000C94C00EFE
:101D800022FF0C94BB0E612F79830E94EB0C8BEF2A
:101D90008093E800812F7981972F0F90DF91CF9169
:101DA0001F910895CF93DF931F92CDB7DEB71982AD
:101DB000CE0101960E949908CE0101960E944C190D
:101DC000898190E00F90DF91CF9108951F920F923B
:101DD0000FB60F921124EF92FF920F931F932F9340
:101DE0003F934F935F936F937F938F939F93AF93A3
:101DF000BF93EF93FF93CF93DF93CDB70C94000F76
:101E0000DEB76297DEBFCDBF1092E9008091E80097
:101E100083FF0C945F1068E0CE010A960E94EB0CE1
:101E200082EF8093E8009A8597FF0C941E0F8091B3
:101E3000E80080FF0C94170F0C94210F8EEF809315
:101E4000E800892F807609F002C00C94290F0C94C9
:101E500039108B8581110C94330F1092F100109280
:101E6000F1000C945710282F2D7F213009F402C067
:101E70000C943C0F0C945710853000000C94400FCC
:101E800009F402C00C944F0F8091E80080FF0C947D
:101E9000440F8C8580688093E3000C945710863043
:101EA00009F002C00C94560F0C94FD0F2D85E888A4
:101EB000F988223009F402C00C94920F80E090E07F
:101EC0002A8B0E946F0E0E94D20E99E08E010F5F46
:101ED0001F4FF801392F11923A9509F402C00C9462
:101EE0006B0F99832A892A8391E09E8390E89887D3
:101EF0009AEF998720917103309172030C94800FAF
:101F0000275F3F4F3C832B838D83C7010E946F0E59
:101F100049E050E0B80180E00E947A0E0E94D20EA3
:101F20000C945710C7012A8B0E946F0E2A89223207
:101F300009F402C00C94A90F82E290E00E945719A4
:101F4000892B09F002C00C94A70F0C9457100C9425
:101F50005C10213009F402C00C94C20F8889998961
:101F6000089709F402C00C94B70F20936E03809178
:101F70006E0381110C94E70F65E071E00C94C00FC3
:101F80000C94ED0F233009F002C00C94C90F0C948F
:101F90005C108C85882309F002C00C94EB0F823012
:101FA00009F402C00C94D90F6CE083E291E00C9428
:101FB000E30F813009F002C00C94E00F0C945C1028
:101FC0006BE087E191E00E94AE0C0C94521063EF3D
:101FD00070E00C94ED0F60E371E06115710509F498
:101FE00002C00C94F50F0C945C10FB01449150E07E
:101FF00080E80E947A0E0C94571087300C940010E1
:1020000009F402C00C9406100C945C10883009F49A
:1020100002C00C94101081E08093F1000C945710D2
:10202000893009F402C00C945710937009F402C06F
:102030000C945C10EFEEF0E081E021E096E38093F9
:10204000E9002093EB0034913093EC009093ED0085
:102050008F5F3196853009F402C00C941F108EE713
:102060008093EA001092EA008C85809373030C94AD
:102070005710888999890E946F0E8E850C944010A4
:1020800081110C944910CE010A960E94A4080C9468
:102090005210823009F402C00C945C10CE010A96F2
:1020A0000E948119882309F002C00C945C108EEF05
:1020B0008093E8000C945F1081E28093EB006296BD
:1020C0000FB6F894DEBF0FBECDBFDF91CF91FF9169
:1020D000EF91BF91AF919F918F917F916F915F91A0
:1020E0004F913F912F911F910F91FF90EF900F9083
:1020F0000FBE0F901F9018958093E9000C948010EC
:102100008091F200882309F002C00C948A108AE3BF
:102110008093E80008951F920F920FB60F9211243A
:102120002F933F934F935F936F937F938F939F93DF
:10213000AF93BF93EF93FF938091E1001092E10082
:1021400083FF0C94B2101092E90091E09093EB00A1
:102150001092EC0092E39093ED001092730398E0DC
:102160009093F00082FF0C94E31083E00E947C10B7
:102170008091750388230000000000000C94C010BB
:1021800009F002C00C94CE108091750381508093A9
:102190007503882309F002C00C94E0108091740349
:1021A000882309F002C00C94E310809174038150DD
:1021B0008093740381110C94E310289A0C94E3101B
:1021C0005D9A0C94CE10FF91EF91BF91AF919F91CA
:1021D0008F917F916F915F914F913F912F910F90D0
:1021E0000FBE0F901F9018951092730381E080939B
:1021F000D70080EA8093D80082E189BD0C94001159
:1022000009B400FE0C94001161E070E080E090E001
:102210000E94A01880E98093D8008CE08093E200AF
:102220001092E000559A209A0895FC0180819181D6
:102230000C94651CCF93DF93EC0188819981009702
:1022400009F002C00C9426110E94651C19821882A4
:102250001D821C821B821A82DF91CF9108950F93F9
:102260001F93CF93DF93EC018B016F5F7F4F8881CA
:1022700099810E94211D0097000000000C944011DC
:1022800009F002C00C944B11998388831B830A8345
:1022900081E00C944C1180E0DF91CF911F910F9160
:1022A0000895CF93DF93EC0188819981892B09F000
:1022B00002C00C9463118A819B818617970708F4EA
:1022C00002C00C947511CE010E942F11882309F0D1
:1022D00002C00C9476118C819D81892B09F402C077
:1022E0000C947511E881F981108281E0DF91CF9122
:1022F0000895EF92FF920F931F93CF930C94801148
:10230000DF93EC017B018A01BA010E945111811116
:102310000C948F11CE010E941A110C9496111D83FA
:102320000C83B701888199810E94451ECE01DF91FF
:10233000CF911F910F91FF90EF900895FC011182B2
:10234000108213821282158214826115710509F0C0
:1023500002C00C94B911FB010190002009F402C0E5
:102360000C94AC11AF0141505109461B570B0C9412
:1023700079110895CF93DF93EC01FB010C94C01108
:102380008617970709F002C00C94D61160817181FD
:102390006115710509F002C00C94D4114481558176
:1023A0000E9479110C94D6110E941A11CE01DF916E
:1023B000CF910895FC01118210821382128215823E
:1023C00014820C94BA11EF92FF920F931F93CF9344
:1023D000DF93EC017B010C811D816115710509F40E
:1023E00002C00C94F61180E00C94141241155105B2
:1023F00009F002C00C941312040F151F0C94001264
:10240000B8010E945111882309F002C00C94F31105
:10241000288139818C819D81B701820F931F0E9491
:10242000451E1D830C8381E0DF91CF911F910F9199
:10243000FF90EF900895FB01448155816081718187
:102440000C94E3116115710509F002C00C94361269
:10245000FB010190002009F402C00C942912AF0185
:1024600041505109461B570B0C94E31180E008952D
:1024700008950E94D4180E9438128DE60C944012E0
:1024800093E00E94F4100E945F01C2E2D8E00E9433
:102490007607209709F002C00C9447120E94800929
:1024A0000C944712FC01238134812627022E2295A9
:1024B000207F2025032E322F22952F70022626956D
:1024C00032272327220F220F220F2025FC013483DD
:1024D00023830895CF93DF93EC018D819E81DC01EE
:1024E000ED91FC916C810190F081E02D09958D8139
:1024F0009E81DC01ED91FC910190F0810C948012A1
:10250000E02D6B81DF91CF9109948F929F92AF92D2
:10251000BF92CF92DF92EF92FF92CF93DF93EC01C5
:102520006B010E9468184B015C01E12CF12C8D813C
:102530009E81DC01ED91FC910680F781E02D0995EB
:1025400097FF0C94B3120E946818681979098A09D8
:102550009B096C157D058E059F0508F002C00C9443
:1025600097128FEF9FEFDF91CF91FF90EF90DF9069
:10257000CF90BF90AF909F908F9008950C94C01211
:10258000CF93DF93EC018D819E81DC01ED91FC9175
:102590000480F581E02D0995181619060CF402C087
:1025A0000C94DD128D819E81DC01ED91FC91068001
:1025B000F781E02D09950C94C312DF91CF91089516
:1025C0002F923F924F925F926F927F928F929F9243
:1025D000AF92BF92CF92DF92EF92FF920F931F9331
:1025E000CF93DF93CDB7DEB72D970FB6F894DEBF4C
:1025F0000FBECDBF3C011B013C832B830C94001309
:10260000BF82AE825801AC0CBD1CA40EB51EBD82AB
:102610004B2C512CCA01860F971F99878887D901A7
:10262000A00FB11FBB87AA87F601EE0DFF1DFD8726
:10263000EC87D30118968C91581608F002C00C94C0
:1026400023130C947C14EFEFFFEFD3011496FC934B
:10265000EE93139715968D919C911697DC01ED9151
:10266000FC910190F081E02D6FEF09956FEFC301B0
:102670000E945212F30185819681DC010C94401373
:10268000ED91FC910190F081E02DD3016C910995C1
:10269000F3016081C3010E945212D30115968D91FE
:1026A0009C911697DC01ED91FC910190F081E02D59
:1026B0006D810995642DC3010E945212F301858139
:1026C0009681DC01ED91FC910190F081E02D6A2D65
:1026D00009956A2DC3010E9452126101888599856E
:1026E000C816D90609F002C00C948D13F301858138
:1026F00096818601DC01ED91FC9101900C94801390
:10270000F081E02DD6016D916D010995F801608190
:10271000C3010E9452120C946E13CB80DC808A8518
:102720009B85C816D90609F002C00C94AE13D301DC
:1027300015968D919C9116978601DC01ED91FC9187
:102740000190F081E02DD6016D916D010995F801A0
:102750006081C3010E9452120C948F1387018C85F3
:102760009D850817190709F002C00C94D013D301F6
:1027700015968D919C9116976801DC010C94C013FD
:10278000ED91FC910190F081E02DD8016D918D01CA
:102790000995F6016081C3010E9452120C94AF1397
:1027A000C3010E946A1264E670E0C3010E948512B0
:1027B0008F3F910509F002C00C94E0130C94701443
:1027C000EFEFFFEFD3011496FC93EE9313976FEFA7
:1027D000C3010E94521265E070E0C3010E9485129D
:1027E000D3016C91262F30E08217930709F002C0C5
:1027F0000C94FC130C947014C30100000C9400148E
:102800000E9452126AE070E0C3010E9485128C019E
:1028100097FD0C947014682FC3010E9452126AE055
:1028200070E0C3010E9485126C0197FD0C94701436
:10283000682FC3010E9452120A83198209811A81EA
:102840000C0D1D1DC12CD12C65E070E0C301C0161C
:10285000D10609F002C00C944814C814D90409F038
:1028600002C00C9448140E94851297FD0C944314E6
:10287000EE81FF81EC0DFD1D8083682F0C944014C8
:10288000C3010E945212BFEFCB1ADB0A0C9424142E
:102890000E9485126C0197FD0C94701465E070E045
:1028A000C3010E94851297FD0C947014DC2CCC247B
:1028B000C80ED91EF301838194818C159D0509F4FE
:1028C00002C00C94701480818F5F8083C8018016D1
:1028D000910608F402C00C948014C4010C94801476
:1028E000539464E670E080E090E00E94A018C30179
:1028F0000E94C0120C9419138FEF9FEF0C94801458
:102900002D960FB6F894DEBF0FBECDBFDF91CF91ED
:102910001F910F91FF90EF90DF90CF90BF90AF90FD
:102920009F908F907F906F905F904F903F902F90EF
:1029300008953F924F925F926F927F928F929F92F3
:10294000AF92BF92CF92DF92EF92FF920F931F93BD
:10295000CF93DF93CDB7DEB72E970FB6F894DEBFD7
:102960000FBECDBF3C01DC0117968C9117978111EA
:102970000C94A21581E017968C93C3010C94C0149B
:102980000E94C01268EE73E080E090E00E94A01800
:10299000F30185819681DC01ED91FC910480F58144
:1029A000E02D0995181619060CF002C00C94BD1400
:1029B00055E0552E4424439462E3362EE0E1F1E0E5
:1029C000DE011696852D01900D928A9509F402C0BC
:1029D0000C94E314F3014086812C912CA12CB12C92
:1029E000C12CD12CE12CF12C00E010E020E030E0F3
:1029F00045E050E0BE016A5F7F4FC3010C940015B3
:102A00000E94E01263E0D30115968D919C91169778
:102A10000E94390B6AEF70E080E090E00E94A018FD
:102A200062E471E0F301858196810E940E0B6AEFEA
:102A300070E080E090E00E94A01860E471E0D301B3
:102A400015968D919C9116970E940E0B64EF71E084
:102A500080E090E00E94A01864E371E0F3018581BA
:102A600096810E940E0B64EF71E080E090E00E947E
:102A7000A018C3010E94C012E5E1F1E00C944015DA
:102A8000DE011196852D01900D928A9509F402C000
:102A90000C944315D30118963C9244E0842E912C5B
:102AA000FE013B965F0120E030E045E050E0BE01D2
:102AB0006F5F7F4FC3010E94E0128F3FFFEF9F07C0
:102AC00009F402C00C946C1568EE73E080E090E0AD
:102AD0000E94A0180C94DE142B852111FFCF0497BF
:102AE00009F402C00C9499152C8530E0205331096B
:102AF00044E6429FC001439F900D11240C94801521
:102B00002D8530E0205331096AE0629FA001639F68
:102B1000500D1124840F951F2E8530E0205331096C
:102B2000820F931FD30112969C938E9311970C944E
:102B30009E1584E690E0F3019283818382E3D301C2
:102B400018968C932E960FB6F894DEBF0FBECDBFAD
:102B5000DF91CF911F910F91FF90EF90DF90CF9079
:102B6000BF90AF909F908F907F906F905F904F90AD
:102B70003F9008951092760387E993E00C94C01576
:102B800090937C0380937B0310927D0310927E03CD
:102B90009093800380937F03089508958F929F926E
:102BA000AF92BF92CF92DF92EF92FF920F931F935B
:102BB00048015901C12CD12CE12CF12C00E010E08E
:102BC00020E030E00E94E0121F910F91FF90EF9003
:102BD000DF90CF90BF90AF909F908F9008950F930C
:102BE0001F93CF93DF9300D01F92CDB7DEB729E4B8
:102BF0002983FC0126852A836B8300E00C94001650
:102C000010E020E030E043E050E0BE016F5F7F4F16
:102C1000848595850E94CE1581E090E00F900F90FD
:102C20000F90DF91CF911F910F910895EF92FF9236
:102C30000F931F93CF93DF9300D01F92CDB7DEB7D2
:102C40007C01FC01838981110C943D16148A8FE468
:102C5000898386858A8380E48B8397012B5E3F4F2F
:102C600000E410E043E050E0BE016F5F7F4F8485D9
:102C700095850E94CE15F701838B0F900C9440161A
:102C80000F900F90DF91CF911F910F91FF90EF90D8
:102C90000895CF93DF93EC010E9416168B8990E084
:102CA000DF91CF910895CF93DF93EC010E94161628
:102CB0008B89882309F002C00C946A1681508B8B93
:102CC0008C8991E0980F9C8BC80FD11D8D8990E065
:102CD0000C946C168FEF9FEFDF91CF910895CF93F7
:102CE000DF93EC010E9416168B89882309F002C03D
:102CF0000C9483168C89C80FD11D8D890C94801675
:102D000090E00C9485168FEF9FEFDF91CF9108959F
:102D10000F931F93CF93DF93EC018B016CE972E06B
:102D2000888999890E942212B80188899989DF913E
:102D3000CF911F910F910C941B126F927F928F92E3
:102D40009F92AF92BF92CF92DF92EF92FF920F933A
:102D50001F93CF93DF9300D01F92CDB7DEB73C0116
:102D600082E58B83D3015096ED91FC9151970481BC
:102D700015812081318182E0882E912C0C94C0161F
:102D8000FE0131965F01C12CD12CE12CF12C41E0E8
:102D900050E0BE016D5F7F4F1C968D919C911D97F9
:102DA0000E94E0128A8190E0D3011F969C938E933B
:102DB0001E9750960D911C9151970115110509F020
:102DC00002C00C94E916C8010E941511C8010E94A6
:102DD0008F1BF301118A108A898181110C94F216DC
:102DE00081E0828B0F900F900F90DF91CF911F9118
:102DF0000F91FF90EF90DF90CF90BF900C94001751
:102E0000AF909F908F907F906F9008950F931F9336
:102E1000CF93DF9300D01F92CDB7DEB722E729838F
:102E2000FC0126852A8301E010E09E012D5F3F4FC3
:102E300042E050E0BE016F5F7F4F848595850E9420
:102E4000CE1581E09B81913009F002C00C942917C6
:102E500080E00F900F900F90DF91CF911F910F9115
:102E600008950F931F93CF93DF9300D000D0CDB779
:102E7000DEB727E52B83FC0126852C830C944017B5
:102E800002E010E09E012F5F3F4F42E050E0BE01A4
:102E90006D5F7F4F848595850E94CE15898190E076
:102EA000982F88272A81820F911D0F900F900F90E5
:102EB0000F90DF91CF911F910F910895EF92FF92A4
:102EC0000F931F93CF93DF9300D0CDB7DEB77C0174
:102ED000FC018289882309F002C00C94821787E7DD
:102EE000898386858A8300E010E020E030E042E0BC
:102EF00050E0BE016F5F7F4F848595850C948017ED
:102F00000E94CE15F701128A0F900F90DF91CF919A
:102F10001F910F91FF90EF9008952EEA32E0FC018F
:102F2000318320830C945E17EF92FF920F931F93CF
:102F3000CF93DF9300D0CDB7DEB77C0169837A836E
:102F40000E945E1786E090E00E948D1B8C016981D3
:102F50007A810E94DA11F701118B008B0F900F908C
:102F6000DF91CF911F910F91FF90EF900895EF9215
:102F7000FF920F931F93CF93DF9300D00C94C01751
:102F800000D000D0CDB7DEB78C017B016EE972E0D6
:102F9000CE0101960E949E11BE016F5F7F4FC80156
:102FA0000E949417CE0101960E94151167EA72E003
:102FB000CE0101960E949E11BE016F5F7F4FC80136
:102FC0000E948816CE0101960E941511B701C80112
:102FD0000E948816C8010E949D1626960FB6F89486
:102FE000DEBF0FBECDBFDF91CF911F910F91FF903C
:102FF000EF900895CF93DF93EC0100000C9400183C
:103000000E94B717CE010E940617882309F002C05C
:103010000C94121864E670E080E090E00E94A01822
:103020000C940218CE01DF91CF910C9431171F92AE
:103030000F920FB60F9211242F933F938F939F936C
:10304000AF93BF938091820390918303A0918403F7
:10305000B09185033091810323E0230F2D3708F4CD
:1030600002C00C9438180196A11DB11D0C94401893
:1030700026E8230F0296A11DB11D00000C944018F4
:10308000209381038093820390938303A09384030E
:10309000B09385038091860390918703A091880364
:1030A000B09189030196A11DB11D80938603909371
:1030B0008703A0938803B0938903BF91AF919F9139
:1030C0008F913F912F910F900FBE0F901F901895E9
:1030D0002FB7F894609182037091830380918403E9
:1030E000909185032FBF08953FB7F8948091860390
:1030F00090918703A0918803B09189030C94801864
:1031000026B5A89B0C948C182F3F09F002C00C9494
:103110008C180196A11DB11D3FBF6627782F892FFE
:103120009A2F620F711D811D911D42E0660F771F5E
:10313000881F991F4A9509F402C00C9496180895A7
:10314000CF92DF92EF92FF92CF93DF936B017C01DE
:103150000E947418EB01C114D104E104F10409F0D8
:1031600002C00C94CD180E94911B0E9474186C1B15
:103170007D0B683E73400000000000000C94C018F6
:1031800008F002C00C94AB1881E0C81AD108E1081D
:10319000F108C851DC4F0C94AB18DF91CF91FF9030
:1031A000EF90DF90CF900895789484B5826084BDCD
:1031B00084B5816084BD85B5826085BD85B581603B
:1031C00085BDEEE6F0E0808181608083E1E8F0E09B
:1031D0001082808182608083808181608083E0E8CA
:1031E000F0E0808181608083E1E9F0E080818260AD
:1031F0008083808181608083E0E9F0E00C94001995
:10320000808181608083E1ECF0E080818460808354
:10321000808182608083808181608083E3ECF0E044
:10322000808181608083E0ECF0E080818260808337
:10323000E2ECF0E0808181608083EAE7F0E0808169
:1032400084608083808182608083808181608083CC
:103250008081806880830895FF920F931F93CF939E
:10326000DF93EC01F62EE881F9810480F581E02DF1
:1032700009958C01E881F9810680F7810C94401949
:10328000E02D6F2DCE010995C8019927DF91CF91CF
:103290001F910F91FF900895FC0120812F5F2083E3
:1032A00049E150E064EC71E080E80C947A0E45E668
:1032B00050E06DED71E080E80C947A0EEF92FF9291
:1032C0000F931F93CF93DF931F92CDB7DEB7898300
:1032D0008B017A0141E050E0BE016F5F7F4F84E0D7
:1032E0000E94AD0DA701B80184E40E94AD0D0F90BE
:1032F000DF91CF911F910F91FF90EF900C94801967
:103300000895FC0191818081813A09F402C00C94F6
:10331000961981E0913009F002C00C94AF199330F6
:1033200009F402C00C94B0190C94B119813209F45B
:1033300002C00C94B0199B3009F402C00C94A5197A
:10334000828180930F010C94AD199A3009F402C068
:103350000C94B019828180930E0181E00895089544
:1033600080E0089548E050E082E00C945E19CF932D
:10337000DF93DC0168380000000000000C94C019E5
:1033800008F002C00C94C819E8E7E60F0C94F8198D
:10339000E62FF0E067FF0C94E319E058F10981E0B3
:1033A00090E00C94D419880FEA950AF402C00C94AA
:1033B000D31914969C911497982B14969C93149758
:1033C000E0E00C94F819EC5BFE4FE491EE2309F475
:1033D00002C00C94ED190C94501AE7FF0C94F819E4
:1033E00014968C911497826014968C931497EF77AF
:1033F00016968C9116978E17000000000C94001AF8
:1034000009F002C00C94461A17968C9117978E17E4
:1034100009F002C00C94461A18968C9118978E17D2
:1034200009F002C00C94461A19968C9119978E17C0
:1034300009F002C00C94461A1A968C911A978E17AE
:1034400009F002C00C94461A1B968C911B978E179C
:1034500009F002C00C94461A80E090E0ED01C80F1C
:10346000D91F2E8121110C94381AEE830C94461A20
:103470000196863091050000000000000C94401A6F
:1034800009F402C00C942E1A0C94501ABD016C5F02
:103490007F4FCD010E94B21981E090E00C94581A40
:1034A00081E090E013969C938E93129780E090E0D9
:1034B000DF91CF910895683808F002C00C94641A27
:1034C000E8E7E60F0C94951AE62FF0E067FF0C94FE
:1034D000821AE058F10921E030E00C94701A220FB2
:1034E000EA950AF402C00C946F1A2095DC01149638
:1034F0003C911497322314963C93E0E00C94801A8C
:103500000C94951AEC5BFE4FE491EE2309F002C097
:103510000C94B71AE7FF0C94951ADC0114962C91C1
:1035200014972D7F14962C93EF7720E030E0EE2354
:1035300009F002C00C94A71ADC01A20FB31F169663
:103540004C9116974E130C94A71A16961C922F5F47
:103550003F4F2630310509F402C00C94971ABC0184
:103560006C5F7F4F0E94B21981E090E0089580E087
:1035700090E00895FC011682178210860C94C01A00
:103580001186128613861482BC016C5F7F4F0C94E7
:10359000B2191092960310928D0310928C038EEB49
:1035A00092E090938B0380938A0308951F920F9269
:1035B0000FB60F9211242F938F939F93EF93FF9346
:1035C000E091A703F091A8038081E091AD03F09111
:1035D000AE0382FD0C94041B90818091B0038F5F39
:1035E0008F732091B103821709F002C00C94051B60
:1035F000E091B003F0E0E956FC4F958F0C94001B6E
:103600008093B0030C94051B8081FF91EF919F91F3
:103610008F912F910F900FBE0F901F9018951F92B2
:103620000F920FB60F9211242F933F934F935F93F6
:103630006F937F938F939F93AF93BF93EF93FF937A
:1036400087E993E00E949409FF91EF91BF91AF91B8
:103650009F918F917F916F915F914F913F912F91AA
:103660000F900FBE0F901F90189587E993E00E946E
:103670004B0921E0892B0000000000000C94401B46
:1036800009F402C00C94451B20E0822F089510928B
:103690009A031092990388EE93E0A0E0B0E0809343
:1036A0009B0390939C03A0939D03B0939E0381E89A
:1036B00092E090939803809397038DEC90E0909321
:1036C000A4038093A3038CEC90E09093A6038093D3
:1036D000A50388EC90E09093A8038093A70389EC5E
:1036E00090E09093AA038093A9038AEC90E09093D2
:1036F000AC038093AB038EEC90E000000C94801B35
:103700009093AE038093AD031092B0031092B10377
:103710001092B2031092B30308950C94921B0C9470
:10372000651C0895CF93DF938230910508F402C0A1
:103730000C949C1B82E090E0E0913604F0913704F9
:1037400020E030E0A0E0B0E0309709F002C00C9437
:10375000E51B408151814817590708F002C00C94BD
:10376000D81B4817590709F402C00C94CC1B82815E
:103770009381109709F002C00C94C61B0C94C01BD7
:1037800013969C938E9312970C94071C9093370476
:10379000809336040C94071C2115310509F002C0F2
:1037A0000C94DC1B4217530708F002C00C94DC1B7E
:1037B000A901DB010C94DD1BEF019A01BD01DF01C2
:1037C0000280F381E02D0C94A41B2115310509F032
:1037D00002C00C94151C281B390B2430310508F449
:1037E00002C00C940A1C8A819B816115710509F045
:1037F00002C00C94021CFB01938382830C94001C76
:103800000C94061C9093370480933604FE01329684
:103810000C94611CFE01E20FF31F819391932250DF
:103820003109398328830C94611C20913404309130
:103830003504232B09F402C00C94261C20910201AC
:10384000309103013093350420933404209100011A
:10385000309101012115310509F402C00C94381C86
:103860002DB73EB74091040150910501241B350B43
:10387000E0913404F0913504E217F3070C94401CF6
:1038800008F402C00C945F1C2E1B3F0B281739074D
:1038900008F002C00C945F1CAC014E5F5F4F241710
:1038A000350708F002C00C945F1C4E0F5F1F509349
:1038B000350440933404819391930C94611CE0E0AF
:1038C000F0E0CF01DF91CF910895CF93DF93009780
:1038D00009F402C00C946E1C0C941E1DFC0132975E
:1038E00013821282C0913604D0913704209709F4D4
:1038F00002C00C94911C20813181280F0C94801CF3
:10390000391F80913404909135048217930709F48C
:1039100002C00C94CA1CF0933504E09334040C9458
:103920001E1DDE0120E030E0AE17BF0708F402C024
:103930000C94A81C12964D915C9113979D01411512
:10394000510509F002C00C94D01CDA010C94941CAF
:10395000B383A28340815181840F951F8A179B07EF
:1039600009F402C00C94C41C8D919C911197840F92
:10397000951F02969183808312968D910C94C01CA2
:103980009C911397938382832115310509F402C01A
:103990000C94D01CF0933704E09336040C941E1D55
:1039A000D9011396FC93EE9312974D915D91A40F5C
:1039B000B51FEA17FB0709F402C00C94EE1C8081C6
:1039C0009181840F951F0296D90111969C938E9335
:1039D0008281938113969C938E931297E0E0F0E09E
:1039E0008A819B81009709F002C00C94FB1CFE01A8
:1039F000EC010C94F01CCE01029628810C94001D61
:103A00003981820F931F2091340430913504281797
:103A1000390709F402C00C941E1D309709F402C046
:103A20000C94181D10923704109236040C941A1D31
:103A300013821282D0933504C0933404DF91CF9166
:103A40000895A0E0B0E0E7E2FDE10C942B22EC0148
:103A5000CB01209709F402C00C94321D0E94921BE6
:103A60000C942E1EFE01E60FF71F9E012250310915
:103A7000E217F30708F402C00C94421D0C94401D99
:103A80000C942C1ED9010D911C9111970617170744
:103A900008F002C00C946C1D0530110508F402C03A
:103AA0000C94541D0C94291EA8014450510946172A
:103AB000570708F402C00C945F1D0C94291E025095
:103AC0001109061B170B019311936D937C93CF0182
:103AD0000E94651C0C94291E5B01A01AB10A4E01BC
:103AE000800E911EA0913604B0913704612C712C88
:103AF00060E070E010970000000000000C94801D52
:103B000009F402C00C94861D0C94E41DA815B90597
:103B100009F402C00C94D31DED90FC90119767013D
:103B200042E0C40ED11CCA14DB0408F002C00C949D
:103B3000D31D47018A189B08640142E0C40ED11CC2
:103B40001296BC9012971396AC91B5E0CB16D104A7
:103B500008F002C00C94B51DB282A38391828082CA
:103B6000D9018D939C930C94C01D0E5F1F4F0E0DB9
:103B70001F1DF90111830083EB2DFA2F0C94C01D3A
:103B80006115710509F002C00C94CD1DDB0113967F
:103B9000FC93EE9312970C94291EF0933704E09354
:103BA00036040C94291E6D917C9111976616770648
:103BB00008F402C00C94DD1D3B01BD0112960D906E
:103BC000BC91A02D0C947A1D609134047091350441
:103BD0006815790509F402C00C94171E6816790659
:103BE00008F402C00C94171E40910001509101018D
:103BF0004115510509F402C00C94081E0C94001ED6
:103C00004DB75EB76091040170910501461B570BDB
:103C1000E417F50708F402C00C942C1EF093350449
:103C2000E0933404F901918380830C94291E0E944F
:103C3000921B7C01009709F002C00C942C1EA80175
:103C4000BE010E94361ECE010E94651CC7010C9465
:103C50002E1ECE010C942E1E80E090E0CDB7DEB774
:103C6000EEE00C944722F8940C946422FB01DC01F2
:103C70000C943C1E01900D92415050400C94401EFB
:103C800008F402C00C943A1E0895FB01DC01019077
:103C90000D92002009F402C00C94471E0895AEE076
:103CA000B0E0E5E5FEE10C9435220D891E8986E041
:103CB0008C831A8309838FEF9FE79E838D83AE01E8
:103CC000475E5F4F6F89788DCE0101960E94711E0D
:103CD000EF81F885E00FF11F10822E96E4E00C943E
:103CE0005122ACE0B0E0E7E7FEE10C9427227C0132
:103CF0006B018A01FC011782168283810C94801E5D
:103D000081FF0C940A21CE0101964C01F7019381A9
:103D1000F60193FD859193FF81916F01882309F44A
:103D200002C00C94951E0C940521853209F402C042
:103D30000C94A41E93FD859193FF81916F018532B0
:103D400009F402C00C94AA1EB70190E00E9435212C
:103D50000C94861E512C312C20E0203208F402C035
:103D60000C94E01E8B3209F002C00C94D91E08F4AA
:103D700002C00C94CC1E8032000000000C94C01EC7
:103D800009F002C00C94DA1E833209F402C00C94CC
:103D9000E01E20610C94171F8D3209F002C00C94B4
:103DA000DD1E803309F402C00C94E01E21600C94E7
:103DB000171F226024600C94171F28600C94171F93
:103DC00027FD0C94201F30ED380F3A3008F402C064
:103DD0000C94FC1E26FF0C94F41EFAE05F9E300D3E
:103DE0001124532E0C94171F8AE0389E300D112495
:103DF000332E20620C94171F8E3200000C94001F8B
:103E000009F402C00C940A1F26FD0C9405212064BD
:103E10000C94171F8C3609F402C00C94121F2068F2
:103E20000C94171F883609F402C00C94201FF60169
:103E300093FD859193FF81916F0181110C94AD1ECB
:103E4000982F9F7D9554933008F402C00C942E1F38
:103E50000C5F1F4FFFE3F9830C94491F833609F071
:103E600002C00C94441F833709F002C00C944F1F0A
:103E7000833509F002C00C94421F00000C94401FCF
:103E80000C94AF1F0C946A1FF801808189830E5F28
:103E90001F4F44244394512C54010C94661F380145
:103EA000F2E06F0E711CF801A080B18026FF0C9427
:103EB0005D1F652D70E00C945F1F6FEF7FEFC501F4
:103EC0002C870E9427212C0183012C852F77222EFD
:103ED0000C94851F3801F2E06F0E711CF801A08070
:103EE000B18026FF0C94781F652D70E00C947A1F2A
:103EF0006FEF7FEFC5012C870E9419210C94801F62
:103F00002C012C852068222E830123FC0C94A71FF2
:103F1000832D90E04816590608F402C00C94A71FA0
:103F2000B70180E290E00E9435213A940C94881FFA
:103F3000F50127FC859127FE81915F01B70190E093
:103F40000E94352131103A94F1E04F1A5108411482
:103F5000510409F402C00C94981F0C94F420843688
:103F600009F002C00C94B91F893609F402C00C9400
:103F7000E61FF80127FF0C94C71F60810C94C01F37
:103F80007181828193810C5F1F4F0C94CF1F6081E0
:103F90007181882777FD8095982F0E5F1F4F2F76B0
:103FA000B22E97FF0C94DD1F9095809570956195CA
:103FB0007F4F8F4F9F4F2068B22E2AE030E0A40140
:103FC0000E947421A82EA8180C944B20853709F460
:103FD00002C00C94F11F2F7EB22E2AE030E00C9428
:103FE0002F20F22FF97FBF2E8F3609F002C00C94DC
:103FF000252008F402C00C94062088350C9400207B
:1040000009F002C00C941D200C940521803709F0A2
:1040100002C00C941220883709F002C00C941520BD
:104020000C9405212F2F2061B22EB4FE0C94292070
:104030008B2D8460B82E0C94292024FF0C942D2005
:104040009F2F9660B92E0C942D2028E030E00C9420
:104050002F2020E130E00C942F2020E132E0F80105
:10406000B7FE0C943B2060817181828193810C5F4B
:104070001F4F0C9443206081718180E00C9440209C
:1040800090E00E5F1F4FA4010E947421A82EA81873
:10409000FB2DFF77BF2EB6FE0C945F202B2D2E7FBD
:1040A000A51408F402C00C946320B4FE0C9466209E
:1040B000B2FC0C9466202B2D2E7E0C9466207A2C5C
:1040C0002B2D0C9467207A2C0C946720752C24FFE0
:1040D0000C947D20FE01EA0DF11D8081803309F4EE
:1040E00002C00C947620297E0C94862022FF0C942A
:1040F0008520739473940C948620822F0C948020D6
:10410000867809F002C00C948620739423FD0C94E9
:10411000A42020FF0C9495205A2C731408F402C09C
:104120000C949520530C5718732C731408F402C088
:104130000C94AC20B70180E290E02C870E943521DE
:1041400073942C850C949520731408F402C00C947D
:10415000AC2037180C94AD20312C24FF0C94C820CF
:10416000B70180E390E02C870E9435212C8522FF47
:104170000C94DB2021FF0C94C32088E50C94C02014
:1041800090E00C94C52088E790E0B7010C94D9200A
:10419000822F867809F002C00C94DB2021FD0C945C
:1041A000D42080E20C94D5208BE227FD8DE2B7016C
:1041B00090E00E943521A51408F402C00C94E82078
:1041C000B70180E390E00E9435215A940C94DB20E3
:1041D000AA94F401EA0DF11D8081B70190E00E94DC
:1041E0003521A1100C94E820332009F402C00C946E
:1041F000FB200C94861EB70180E290E00C94002115
:104200000E9435213A940C94F420F701868197811D
:104210000C940C218FEF9FEF2C96E2E10C9443223B
:10422000F9990C94102192BD81BDF89A992780B517
:104230000895FC01059061507040011008F402C01F
:104240000C941A21809590958E0F9F1F0895FC0164
:10425000615070400190011008F402C00C942821B4
:10426000809590958E0F9F1F08950F931F93CF9366
:10427000DF93182F092FEB018B8100000C94402154
:1042800081FD0C9447218FEF9FEF0C946F2182FFEB
:104290000C945E214E815F812C813D814217530732
:1042A0000CF402C00C946721E881F9819F012F5F13
:1042B0003F4F3983288310830C946721E885F98563
:1042C000812F0995892B09F402C00C9443212E817A
:1042D0003F812F5F3F4F3F832E83812F902FDF91B0
:1042E000CF911F910F910895FA01AA27283009F064
:1042F00002C00C94B5212031000000000C948021F4
:1043000009F002C00C94C621E8946F936E7F6E5F33
:104310007F4F8F4F9F4FAF4FB1E00E94E921B4E034
:104320000E94E921670F781F891F9A1FA11D680F3E
:10433000791F8A1F911DA11D6A0F711D811D911D7D
:10434000A11D0E94DA2109F402C00C94A8216894EE
:104350003F912AE0269F11243019305D31930EF4ED
:1043600002C00C948521CF010895462F4770405D0F
:104370004193B3E00E94DB21000000000C94C021B7
:1043800009F402C00C94B5210C94B321462F4F7050
:10439000405D4A3308F002C00C94D121495D31FDE3
:1043A000405241930E94DA2109F402C00C94C621C4
:1043B0000C94B321B4E0A69597958795779567956A
:1043C000BA9509F402C00C94DB21009761057105D0
:1043D00008959B01AC010A2E069457954795379591
:1043E0002795BA9509F402C00C94EC21620F731F53
:1043F000841F951FA01D0895A1E21A2E0C9400227F
:10440000AA1BBB1BFD010C941522AA1FBB1FEE1F8C
:10441000FF1FA217B307E407F50708F002C00C94CA
:104420001522A21BB30BE40BF50B661F771F881F29
:10443000991F1A9409F402C00C9405226095709596
:10444000809590959B01AC01BD01CF0108952F92FD
:104450003F924F925F926F927F928F929F92AF9214
:10446000BF92CF92DF92EF92FF920F931F93CF9361
:10447000DF93CDB7DEB7CA1BDB0B0FB6F894DEBFF8
:104480000FBECDBF09942A88398848885F846E841E
:104490007D848C849B84AA84B984C884DF80EE8068
:1044A000FD800C811B81AA81B981CE0FD11D0FB671
:1044B000F894DEBF0FBECDBFED010895EE0FFF1FD4
:1044C0000590F491E02D099412E0CCE4D2E00C9434
:1044D0006D22FE010E9460222296CE34D10709F49B
:1044E00002C00C946922F894FFCF000038048000C9
:1044F00000E10000000000000101585858585858C9
:104500005831303052756E6E696E67207077642E48
:104510002E2E0070776400454550524F4D206D653A
:104520006D6F72792066726F6D2000307825252EB0
:1045300025645800090020202000466C6173682023
:104540006D656D6F72792066726F6D2000537461B6
:10455000636B20506F696E7465723A005352414D1F
:104560002066726F6D20003000535441434B3A0077
:104570003078006966636F6E6669670057686174BA
:1045800020646F20796F752077616E743F00312E43
:104590002044756D70205352414D00322E204475D9
:1045A0006D7020466C61736800332E2044756D7009
:1045B00020454550524F4D00342E2052756E2056E6
:1045C000756C6E657261626C652046756E637469A8
:1045D0006F6E00352E20536F6674776172652052BE
:1045E0006573657400362E20476574206E65747798
:1045F0006F726B20696E666F00476F696E6720741B
:104600006F2053572072657365742E2E2E005275DD
:104610006E6E696E672076756C6E657261626C6530
:104620002066756E6374696F6E2E2E2E0056756C43
:104630006E657261626C652066756E6374696F6E1B
:1046400020004F4B004B4F0057726F6E67206F700A
:1046500074696F6E3A2000000000002E087A085B33
:10466000086C084608580800000000E609C40A4B18
:104670000967095609B6090D0A006E616E00696E78
:1046800066006F766600FE002F62696E2F617368A8
:10469000002D630000000000EF15C40A49165316F0
:1046A0006F16CD15000000002C19C40AB7195B1A4B
:0246B000BA1A34
:00000001FF
